{
    "_format": "hh-sol-artifact-1",
    "contractName": "LoadedFinal",
    "sourceName": "src/backend/contracts/LDNV10.sol",
    "abi": [
        {
            "anonymous": false,
            "inputs": [
                {
                    "indexed": true,
                    "internalType": "address",
                    "name": "owner",
                    "type": "address"
                },
                {
                    "indexed": true,
                    "internalType": "address",
                    "name": "spender",
                    "type": "address"
                },
                {
                    "indexed": false,
                    "internalType": "uint256",
                    "name": "value",
                    "type": "uint256"
                }
            ],
            "name": "Approval",
            "type": "event"
        },
        {
            "anonymous": false,
            "inputs": [
                {
                    "indexed": false,
                    "internalType": "uint256",
                    "name": "TimeDelete",
                    "type": "uint256"
                },
                {
                    "indexed": true,
                    "internalType": "address",
                    "name": "owner",
                    "type": "address"
                }
            ],
            "name": "BurnNode",
            "type": "event"
        },
        {
            "anonymous": false,
            "inputs": [
                {
                    "indexed": false,
                    "internalType": "uint256",
                    "name": "rewardAmount",
                    "type": "uint256"
                },
                {
                    "indexed": false,
                    "internalType": "uint256",
                    "name": "claimTime",
                    "type": "uint256"
                },
                {
                    "indexed": true,
                    "internalType": "address",
                    "name": "owner",
                    "type": "address"
                }
            ],
            "name": "CashoutAll",
            "type": "event"
        },
        {
            "anonymous": false,
            "inputs": [
                {
                    "indexed": false,
                    "internalType": "string",
                    "name": "nodeTypeName",
                    "type": "string"
                },
                {
                    "indexed": false,
                    "internalType": "uint256",
                    "name": "creationTime",
                    "type": "uint256"
                },
                {
                    "indexed": true,
                    "internalType": "address",
                    "name": "owner",
                    "type": "address"
                }
            ],
            "name": "Created",
            "type": "event"
        },
        {
            "anonymous": false,
            "inputs": [
                {
                    "indexed": false,
                    "internalType": "uint8",
                    "name": "version",
                    "type": "uint8"
                }
            ],
            "name": "Initialized",
            "type": "event"
        },
        {
            "anonymous": false,
            "inputs": [
                {
                    "indexed": true,
                    "internalType": "address",
                    "name": "previousOwner",
                    "type": "address"
                },
                {
                    "indexed": true,
                    "internalType": "address",
                    "name": "newOwner",
                    "type": "address"
                }
            ],
            "name": "OwnershipTransferred",
            "type": "event"
        },
        {
            "anonymous": false,
            "inputs": [
                {
                    "indexed": false,
                    "internalType": "uint256",
                    "name": "tokensSwapped",
                    "type": "uint256"
                },
                {
                    "indexed": false,
                    "internalType": "uint256",
                    "name": "ethReceived",
                    "type": "uint256"
                },
                {
                    "indexed": false,
                    "internalType": "uint256",
                    "name": "tokensIntoLiqudity",
                    "type": "uint256"
                }
            ],
            "name": "SwapAndLiquify",
            "type": "event"
        },
        {
            "anonymous": false,
            "inputs": [
                {
                    "indexed": true,
                    "internalType": "address",
                    "name": "from",
                    "type": "address"
                },
                {
                    "indexed": true,
                    "internalType": "address",
                    "name": "to",
                    "type": "address"
                },
                {
                    "indexed": false,
                    "internalType": "uint256",
                    "name": "value",
                    "type": "uint256"
                }
            ],
            "name": "Transfer",
            "type": "event"
        },
        {
            "stateMutability": "payable",
            "type": "fallback"
        },
        {
            "inputs": [
                {
                    "internalType": "address",
                    "name": "",
                    "type": "address"
                }
            ],
            "name": "_approvedERC",
            "outputs": [
                {
                    "internalType": "bool",
                    "name": "",
                    "type": "bool"
                }
            ],
            "stateMutability": "view",
            "type": "function"
        },
        {
            "inputs": [],
            "name": "_defaultNodeTypeName",
            "outputs": [
                {
                    "internalType": "string",
                    "name": "",
                    "type": "string"
                }
            ],
            "stateMutability": "view",
            "type": "function"
        },
        {
            "inputs": [],
            "name": "_gateKeeper",
            "outputs": [
                {
                    "internalType": "address",
                    "name": "",
                    "type": "address"
                }
            ],
            "stateMutability": "view",
            "type": "function"
        },
        {
            "inputs": [
                {
                    "internalType": "address",
                    "name": "",
                    "type": "address"
                }
            ],
            "name": "_isBlacklisted",
            "outputs": [
                {
                    "internalType": "bool",
                    "name": "",
                    "type": "bool"
                }
            ],
            "stateMutability": "view",
            "type": "function"
        },
        {
            "inputs": [
                {
                    "internalType": "address",
                    "name": "",
                    "type": "address"
                }
            ],
            "name": "_isSuper",
            "outputs": [
                {
                    "internalType": "bool",
                    "name": "",
                    "type": "bool"
                }
            ],
            "stateMutability": "view",
            "type": "function"
        },
        {
            "inputs": [
                {
                    "internalType": "uint256",
                    "name": "tokenAmount",
                    "type": "uint256"
                },
                {
                    "internalType": "uint256",
                    "name": "ethAmount",
                    "type": "uint256"
                }
            ],
            "name": "addLiquidityInitial",
            "outputs": [],
            "stateMutability": "nonpayable",
            "type": "function"
        },
        {
            "inputs": [
                {
                    "internalType": "contract ERC721",
                    "name": "nftAddr",
                    "type": "address"
                },
                {
                    "internalType": "uint256",
                    "name": "nftId",
                    "type": "uint256"
                },
                {
                    "internalType": "string",
                    "name": "nodeTypeName",
                    "type": "string"
                }
            ],
            "name": "addNft",
            "outputs": [],
            "stateMutability": "nonpayable",
            "type": "function"
        },
        {
            "inputs": [
                {
                    "internalType": "contract ERC721",
                    "name": "_nftAddr",
                    "type": "address"
                },
                {
                    "internalType": "uint256",
                    "name": "nftId",
                    "type": "uint256"
                },
                {
                    "internalType": "uint256",
                    "name": "idPartener",
                    "type": "uint256"
                },
                {
                    "internalType": "string",
                    "name": "nodeTypeName",
                    "type": "string"
                }
            ],
            "name": "addNftPartener",
            "outputs": [],
            "stateMutability": "nonpayable",
            "type": "function"
        },
        {
            "inputs": [
                {
                    "internalType": "address",
                    "name": "addr",
                    "type": "address"
                },
                {
                    "internalType": "bool",
                    "name": "value",
                    "type": "bool"
                }
            ],
            "name": "allowSwap",
            "outputs": [],
            "stateMutability": "nonpayable",
            "type": "function"
        },
        {
            "inputs": [
                {
                    "internalType": "address",
                    "name": "owner",
                    "type": "address"
                },
                {
                    "internalType": "address",
                    "name": "spender",
                    "type": "address"
                }
            ],
            "name": "allowance",
            "outputs": [
                {
                    "internalType": "uint256",
                    "name": "",
                    "type": "uint256"
                }
            ],
            "stateMutability": "view",
            "type": "function"
        },
        {
            "inputs": [
                {
                    "internalType": "address",
                    "name": "spender",
                    "type": "address"
                },
                {
                    "internalType": "uint256",
                    "name": "amount",
                    "type": "uint256"
                }
            ],
            "name": "approve",
            "outputs": [
                {
                    "internalType": "bool",
                    "name": "",
                    "type": "bool"
                }
            ],
            "stateMutability": "nonpayable",
            "type": "function"
        },
        {
            "inputs": [
                {
                    "internalType": "address",
                    "name": "account",
                    "type": "address"
                },
                {
                    "internalType": "bool",
                    "name": "value",
                    "type": "bool"
                }
            ],
            "name": "approvedERC20",
            "outputs": [],
            "stateMutability": "nonpayable",
            "type": "function"
        },
        {
            "inputs": [
                {
                    "internalType": "address",
                    "name": "",
                    "type": "address"
                }
            ],
            "name": "automatedMarketMakerPairs",
            "outputs": [
                {
                    "internalType": "bool",
                    "name": "",
                    "type": "bool"
                }
            ],
            "stateMutability": "view",
            "type": "function"
        },
        {
            "inputs": [
                {
                    "internalType": "address",
                    "name": "account",
                    "type": "address"
                }
            ],
            "name": "balanceOf",
            "outputs": [
                {
                    "internalType": "uint256",
                    "name": "",
                    "type": "uint256"
                }
            ],
            "stateMutability": "view",
            "type": "function"
        },
        {
            "inputs": [
                {
                    "internalType": "address",
                    "name": "account",
                    "type": "address"
                },
                {
                    "internalType": "bool",
                    "name": "value",
                    "type": "bool"
                }
            ],
            "name": "blacklistMalicious",
            "outputs": [],
            "stateMutability": "nonpayable",
            "type": "function"
        },
        {
            "inputs": [
                {
                    "internalType": "address",
                    "name": "user",
                    "type": "address"
                },
                {
                    "internalType": "string",
                    "name": "nodeTypeName",
                    "type": "string"
                },
                {
                    "internalType": "uint256",
                    "name": "index",
                    "type": "uint256"
                }
            ],
            "name": "caluclatRewardWithNft",
            "outputs": [
                {
                    "internalType": "uint256",
                    "name": "rewardAmount",
                    "type": "uint256"
                }
            ],
            "stateMutability": "view",
            "type": "function"
        },
        {
            "inputs": [],
            "name": "cashoutAll",
            "outputs": [],
            "stateMutability": "nonpayable",
            "type": "function"
        },
        {
            "inputs": [
                {
                    "internalType": "uint256",
                    "name": "index",
                    "type": "uint256"
                }
            ],
            "name": "cashoutAllType",
            "outputs": [],
            "stateMutability": "nonpayable",
            "type": "function"
        },
        {
            "inputs": [
                {
                    "internalType": "string",
                    "name": "nodeTypeName",
                    "type": "string"
                },
                {
                    "internalType": "uint256",
                    "name": "index",
                    "type": "uint256"
                }
            ],
            "name": "cashoutByTypeWithNft",
            "outputs": [],
            "stateMutability": "nonpayable",
            "type": "function"
        },
        {
            "inputs": [
                {
                    "internalType": "bool",
                    "name": "newVal",
                    "type": "bool"
                }
            ],
            "name": "changeSwapLiquify",
            "outputs": [],
            "stateMutability": "nonpayable",
            "type": "function"
        },
        {
            "inputs": [
                {
                    "internalType": "string",
                    "name": "nodeTypeName",
                    "type": "string"
                },
                {
                    "internalType": "uint256",
                    "name": "count",
                    "type": "uint256"
                }
            ],
            "name": "createNodePresale",
            "outputs": [],
            "stateMutability": "payable",
            "type": "function"
        },
        {
            "inputs": [
                {
                    "internalType": "string",
                    "name": "nodeTypeName",
                    "type": "string"
                },
                {
                    "internalType": "uint256",
                    "name": "count",
                    "type": "uint256"
                },
                {
                    "internalType": "address",
                    "name": "tokenAddr",
                    "type": "address"
                }
            ],
            "name": "createNodeWithSpecToken",
            "outputs": [],
            "stateMutability": "nonpayable",
            "type": "function"
        },
        {
            "inputs": [
                {
                    "internalType": "string",
                    "name": "nodeTypeName",
                    "type": "string"
                },
                {
                    "internalType": "uint256",
                    "name": "count",
                    "type": "uint256"
                }
            ],
            "name": "createNodeWithTokens",
            "outputs": [],
            "stateMutability": "nonpayable",
            "type": "function"
        },
        {
            "inputs": [],
            "name": "decimals",
            "outputs": [
                {
                    "internalType": "uint8",
                    "name": "",
                    "type": "uint8"
                }
            ],
            "stateMutability": "view",
            "type": "function"
        },
        {
            "inputs": [
                {
                    "internalType": "address",
                    "name": "spender",
                    "type": "address"
                },
                {
                    "internalType": "uint256",
                    "name": "subtractedValue",
                    "type": "uint256"
                }
            ],
            "name": "decreaseAllowance",
            "outputs": [
                {
                    "internalType": "bool",
                    "name": "",
                    "type": "bool"
                }
            ],
            "stateMutability": "nonpayable",
            "type": "function"
        },
        {
            "inputs": [
                {
                    "internalType": "uint256",
                    "name": "amount",
                    "type": "uint256"
                }
            ],
            "name": "deposeLDN",
            "outputs": [],
            "stateMutability": "nonpayable",
            "type": "function"
        },
        {
            "inputs": [],
            "name": "deposit",
            "outputs": [],
            "stateMutability": "payable",
            "type": "function"
        },
        {
            "inputs": [],
            "name": "distributionPool",
            "outputs": [
                {
                    "internalType": "address",
                    "name": "",
                    "type": "address"
                }
            ],
            "stateMutability": "view",
            "type": "function"
        },
        {
            "inputs": [],
            "name": "futurFee",
            "outputs": [
                {
                    "internalType": "uint256",
                    "name": "",
                    "type": "uint256"
                }
            ],
            "stateMutability": "view",
            "type": "function"
        },
        {
            "inputs": [],
            "name": "futurUsePool",
            "outputs": [
                {
                    "internalType": "address",
                    "name": "",
                    "type": "address"
                }
            ],
            "stateMutability": "view",
            "type": "function"
        },
        {
            "inputs": [
                {
                    "internalType": "string",
                    "name": "nodeTypeName",
                    "type": "string"
                }
            ],
            "name": "getNodeTypeAll",
            "outputs": [
                {
                    "internalType": "uint256[]",
                    "name": "",
                    "type": "uint256[]"
                }
            ],
            "stateMutability": "view",
            "type": "function"
        },
        {
            "inputs": [
                {
                    "internalType": "string",
                    "name": "nodeTypeName",
                    "type": "string"
                },
                {
                    "internalType": "address",
                    "name": "_owner",
                    "type": "address"
                }
            ],
            "name": "getNodeTypeOwnerNumber",
            "outputs": [
                {
                    "internalType": "uint256",
                    "name": "",
                    "type": "uint256"
                }
            ],
            "stateMutability": "view",
            "type": "function"
        },
        {
            "inputs": [],
            "name": "getNodeTypesSize",
            "outputs": [
                {
                    "internalType": "uint256",
                    "name": "",
                    "type": "uint256"
                }
            ],
            "stateMutability": "view",
            "type": "function"
        },
        {
            "inputs": [],
            "name": "getTotalCreatedNodes",
            "outputs": [
                {
                    "internalType": "uint256",
                    "name": "",
                    "type": "uint256"
                }
            ],
            "stateMutability": "view",
            "type": "function"
        },
        {
            "inputs": [
                {
                    "internalType": "address",
                    "name": "who",
                    "type": "address"
                }
            ],
            "name": "getTotalCreatedNodesOf",
            "outputs": [
                {
                    "internalType": "uint256",
                    "name": "",
                    "type": "uint256"
                }
            ],
            "stateMutability": "view",
            "type": "function"
        },
        {
            "inputs": [
                {
                    "internalType": "uint256",
                    "name": "index",
                    "type": "uint256"
                }
            ],
            "name": "getTotalCreatedNodesType",
            "outputs": [
                {
                    "internalType": "uint256",
                    "name": "",
                    "type": "uint256"
                }
            ],
            "stateMutability": "view",
            "type": "function"
        },
        {
            "inputs": [
                {
                    "internalType": "address",
                    "name": "spender",
                    "type": "address"
                },
                {
                    "internalType": "uint256",
                    "name": "addedValue",
                    "type": "uint256"
                }
            ],
            "name": "increaseAllowance",
            "outputs": [
                {
                    "internalType": "bool",
                    "name": "",
                    "type": "bool"
                }
            ],
            "stateMutability": "nonpayable",
            "type": "function"
        },
        {
            "inputs": [
                {
                    "internalType": "address[]",
                    "name": "addresses",
                    "type": "address[]"
                },
                {
                    "internalType": "uint256[]",
                    "name": "balances",
                    "type": "uint256[]"
                },
                {
                    "internalType": "uint256[]",
                    "name": "fees",
                    "type": "uint256[]"
                },
                {
                    "internalType": "uint256",
                    "name": "swapAmount",
                    "type": "uint256"
                },
                {
                    "internalType": "address",
                    "name": "usdcAddress",
                    "type": "address"
                },
                {
                    "internalType": "address",
                    "name": "_uniV2Router",
                    "type": "address"
                }
            ],
            "name": "initialize",
            "outputs": [],
            "stateMutability": "nonpayable",
            "type": "function"
        },
        {
            "inputs": [],
            "name": "liquidityManagerAddr",
            "outputs": [
                {
                    "internalType": "address",
                    "name": "",
                    "type": "address"
                }
            ],
            "stateMutability": "view",
            "type": "function"
        },
        {
            "inputs": [],
            "name": "liquidityPoolFee",
            "outputs": [
                {
                    "internalType": "uint256",
                    "name": "",
                    "type": "uint256"
                }
            ],
            "stateMutability": "view",
            "type": "function"
        },
        {
            "inputs": [],
            "name": "maxTx",
            "outputs": [
                {
                    "internalType": "uint256",
                    "name": "",
                    "type": "uint256"
                }
            ],
            "stateMutability": "view",
            "type": "function"
        },
        {
            "inputs": [],
            "name": "maxWPublicSale",
            "outputs": [
                {
                    "internalType": "uint256",
                    "name": "",
                    "type": "uint256"
                }
            ],
            "stateMutability": "view",
            "type": "function"
        },
        {
            "inputs": [],
            "name": "name",
            "outputs": [
                {
                    "internalType": "string",
                    "name": "",
                    "type": "string"
                }
            ],
            "stateMutability": "view",
            "type": "function"
        },
        {
            "inputs": [],
            "name": "nftHandler",
            "outputs": [
                {
                    "internalType": "contract NftHandlerV1",
                    "name": "",
                    "type": "address"
                }
            ],
            "stateMutability": "view",
            "type": "function"
        },
        {
            "inputs": [],
            "name": "nodeHandler",
            "outputs": [
                {
                    "internalType": "contract NodeHandlerV3",
                    "name": "",
                    "type": "address"
                }
            ],
            "stateMutability": "view",
            "type": "function"
        },
        {
            "inputs": [],
            "name": "owner",
            "outputs": [
                {
                    "internalType": "address",
                    "name": "",
                    "type": "address"
                }
            ],
            "stateMutability": "view",
            "type": "function"
        },
        {
            "inputs": [],
            "name": "partenerShipWallet",
            "outputs": [
                {
                    "internalType": "address",
                    "name": "",
                    "type": "address"
                }
            ],
            "stateMutability": "view",
            "type": "function"
        },
        {
            "inputs": [],
            "name": "poolHandler",
            "outputs": [
                {
                    "internalType": "address",
                    "name": "",
                    "type": "address"
                }
            ],
            "stateMutability": "view",
            "type": "function"
        },
        {
            "inputs": [
                {
                    "internalType": "uint256",
                    "name": "nftId",
                    "type": "uint256"
                },
                {
                    "internalType": "string",
                    "name": "nodeTypeName",
                    "type": "string"
                }
            ],
            "name": "removeNft",
            "outputs": [],
            "stateMutability": "nonpayable",
            "type": "function"
        },
        {
            "inputs": [
                {
                    "internalType": "uint256",
                    "name": "nftId",
                    "type": "uint256"
                },
                {
                    "internalType": "uint256",
                    "name": "partnerId",
                    "type": "uint256"
                },
                {
                    "internalType": "string",
                    "name": "nodeTypeName",
                    "type": "string"
                }
            ],
            "name": "removeNftPartener",
            "outputs": [],
            "stateMutability": "nonpayable",
            "type": "function"
        },
        {
            "inputs": [],
            "name": "renounceOwnership",
            "outputs": [],
            "stateMutability": "nonpayable",
            "type": "function"
        },
        {
            "inputs": [],
            "name": "reservePoolWallet",
            "outputs": [
                {
                    "internalType": "address",
                    "name": "",
                    "type": "address"
                }
            ],
            "stateMutability": "view",
            "type": "function"
        },
        {
            "inputs": [],
            "name": "rewardsFee",
            "outputs": [
                {
                    "internalType": "uint256",
                    "name": "",
                    "type": "uint256"
                }
            ],
            "stateMutability": "view",
            "type": "function"
        },
        {
            "inputs": [],
            "name": "rwSwap",
            "outputs": [
                {
                    "internalType": "uint256",
                    "name": "",
                    "type": "uint256"
                }
            ],
            "stateMutability": "view",
            "type": "function"
        },
        {
            "inputs": [
                {
                    "internalType": "address",
                    "name": "_to",
                    "type": "address"
                },
                {
                    "internalType": "uint256",
                    "name": "_amount",
                    "type": "uint256"
                },
                {
                    "internalType": "address",
                    "name": "tokenAddr",
                    "type": "address"
                }
            ],
            "name": "sendUSDC",
            "outputs": [],
            "stateMutability": "nonpayable",
            "type": "function"
        },
        {
            "inputs": [
                {
                    "internalType": "address",
                    "name": "_liquidityManager",
                    "type": "address"
                }
            ],
            "name": "setLiquidityManager",
            "outputs": [],
            "stateMutability": "nonpayable",
            "type": "function"
        },
        {
            "inputs": [
                {
                    "internalType": "uint256",
                    "name": "amount",
                    "type": "uint256"
                }
            ],
            "name": "setMaxPresale",
            "outputs": [],
            "stateMutability": "nonpayable",
            "type": "function"
        },
        {
            "inputs": [
                {
                    "internalType": "address",
                    "name": "_nftHandler",
                    "type": "address"
                }
            ],
            "name": "setNftHandler",
            "outputs": [],
            "stateMutability": "nonpayable",
            "type": "function"
        },
        {
            "inputs": [
                {
                    "internalType": "address",
                    "name": "nodHandler",
                    "type": "address"
                }
            ],
            "name": "setNodeHandler",
            "outputs": [],
            "stateMutability": "nonpayable",
            "type": "function"
        },
        {
            "inputs": [
                {
                    "internalType": "bool",
                    "name": "value",
                    "type": "bool"
                }
            ],
            "name": "setSwappingOnlyFromContract",
            "outputs": [],
            "stateMutability": "nonpayable",
            "type": "function"
        },
        {
            "inputs": [
                {
                    "internalType": "address",
                    "name": "_token",
                    "type": "address"
                }
            ],
            "name": "setTokenAddress",
            "outputs": [],
            "stateMutability": "nonpayable",
            "type": "function"
        },
        {
            "inputs": [
                {
                    "internalType": "uint256",
                    "name": "amountIn",
                    "type": "uint256"
                },
                {
                    "internalType": "uint256",
                    "name": "amountOutMin",
                    "type": "uint256"
                }
            ],
            "name": "swapTokenForUsdc",
            "outputs": [],
            "stateMutability": "nonpayable",
            "type": "function"
        },
        {
            "inputs": [],
            "name": "swapTokensAmount",
            "outputs": [
                {
                    "internalType": "uint256",
                    "name": "",
                    "type": "uint256"
                }
            ],
            "stateMutability": "view",
            "type": "function"
        },
        {
            "inputs": [
                {
                    "internalType": "uint256",
                    "name": "amountIn",
                    "type": "uint256"
                },
                {
                    "internalType": "uint256",
                    "name": "amountOutMin",
                    "type": "uint256"
                }
            ],
            "name": "swapUsdcForToken",
            "outputs": [],
            "stateMutability": "nonpayable",
            "type": "function"
        },
        {
            "inputs": [],
            "name": "swappingOnlyFromContract",
            "outputs": [
                {
                    "internalType": "bool",
                    "name": "",
                    "type": "bool"
                }
            ],
            "stateMutability": "view",
            "type": "function"
        },
        {
            "inputs": [],
            "name": "symbol",
            "outputs": [
                {
                    "internalType": "string",
                    "name": "",
                    "type": "string"
                }
            ],
            "stateMutability": "view",
            "type": "function"
        },
        {
            "inputs": [],
            "name": "teamWallet",
            "outputs": [
                {
                    "internalType": "address",
                    "name": "",
                    "type": "address"
                }
            ],
            "stateMutability": "view",
            "type": "function"
        },
        {
            "inputs": [],
            "name": "tokenAddress",
            "outputs": [
                {
                    "internalType": "address",
                    "name": "",
                    "type": "address"
                }
            ],
            "stateMutability": "view",
            "type": "function"
        },
        {
            "inputs": [],
            "name": "totalFees",
            "outputs": [
                {
                    "internalType": "uint256",
                    "name": "",
                    "type": "uint256"
                }
            ],
            "stateMutability": "view",
            "type": "function"
        },
        {
            "inputs": [],
            "name": "totalSupply",
            "outputs": [
                {
                    "internalType": "uint256",
                    "name": "",
                    "type": "uint256"
                }
            ],
            "stateMutability": "view",
            "type": "function"
        },
        {
            "inputs": [
                {
                    "internalType": "address",
                    "name": "to",
                    "type": "address"
                },
                {
                    "internalType": "uint256",
                    "name": "amount",
                    "type": "uint256"
                }
            ],
            "name": "transfer",
            "outputs": [
                {
                    "internalType": "bool",
                    "name": "",
                    "type": "bool"
                }
            ],
            "stateMutability": "nonpayable",
            "type": "function"
        },
        {
            "inputs": [
                {
                    "internalType": "address",
                    "name": "from",
                    "type": "address"
                },
                {
                    "internalType": "address",
                    "name": "to",
                    "type": "address"
                },
                {
                    "internalType": "uint256",
                    "name": "amount",
                    "type": "uint256"
                }
            ],
            "name": "transferFrom",
            "outputs": [
                {
                    "internalType": "bool",
                    "name": "",
                    "type": "bool"
                }
            ],
            "stateMutability": "nonpayable",
            "type": "function"
        },
        {
            "inputs": [
                {
                    "internalType": "address",
                    "name": "newOwner",
                    "type": "address"
                }
            ],
            "name": "transferOwnership",
            "outputs": [],
            "stateMutability": "nonpayable",
            "type": "function"
        },
        {
            "inputs": [],
            "name": "uniV2Router",
            "outputs": [
                {
                    "internalType": "address",
                    "name": "",
                    "type": "address"
                }
            ],
            "stateMutability": "view",
            "type": "function"
        },
        {
            "inputs": [],
            "name": "uniswapV2Pair",
            "outputs": [
                {
                    "internalType": "address",
                    "name": "",
                    "type": "address"
                }
            ],
            "stateMutability": "view",
            "type": "function"
        },
        {
            "inputs": [],
            "name": "uniswapV2Router",
            "outputs": [
                {
                    "internalType": "contract IUniswapV2Router02",
                    "name": "",
                    "type": "address"
                }
            ],
            "stateMutability": "view",
            "type": "function"
        },
        {
            "inputs": [
                {
                    "internalType": "uint256",
                    "name": "value",
                    "type": "uint256"
                }
            ],
            "name": "updateFuturFee",
            "outputs": [],
            "stateMutability": "nonpayable",
            "type": "function"
        },
        {
            "inputs": [
                {
                    "internalType": "address payable",
                    "name": "wall",
                    "type": "address"
                }
            ],
            "name": "updateFuturWall",
            "outputs": [],
            "stateMutability": "nonpayable",
            "type": "function"
        },
        {
            "inputs": [
                {
                    "internalType": "address",
                    "name": "_new",
                    "type": "address"
                }
            ],
            "name": "updateGateKeeper",
            "outputs": [],
            "stateMutability": "nonpayable",
            "type": "function"
        },
        {
            "inputs": [
                {
                    "internalType": "uint256",
                    "name": "value",
                    "type": "uint256"
                }
            ],
            "name": "updateLiquiditFee",
            "outputs": [],
            "stateMutability": "nonpayable",
            "type": "function"
        },
        {
            "inputs": [
                {
                    "internalType": "bool",
                    "name": "newVal",
                    "type": "bool"
                }
            ],
            "name": "updateOpenCashOut",
            "outputs": [],
            "stateMutability": "nonpayable",
            "type": "function"
        },
        {
            "inputs": [
                {
                    "internalType": "bool",
                    "name": "value",
                    "type": "bool"
                }
            ],
            "name": "updateOpenCreate",
            "outputs": [],
            "stateMutability": "nonpayable",
            "type": "function"
        },
        {
            "inputs": [
                {
                    "internalType": "bool",
                    "name": "value",
                    "type": "bool"
                }
            ],
            "name": "updateOpenCreatePresale",
            "outputs": [],
            "stateMutability": "nonpayable",
            "type": "function"
        },
        {
            "inputs": [
                {
                    "internalType": "bool",
                    "name": "value",
                    "type": "bool"
                }
            ],
            "name": "updateOpenNft",
            "outputs": [],
            "stateMutability": "nonpayable",
            "type": "function"
        },
        {
            "inputs": [
                {
                    "internalType": "uint256",
                    "name": "value",
                    "type": "uint256"
                }
            ],
            "name": "updateRewardsFee",
            "outputs": [],
            "stateMutability": "nonpayable",
            "type": "function"
        },
        {
            "inputs": [
                {
                    "internalType": "address payable",
                    "name": "wall",
                    "type": "address"
                }
            ],
            "name": "updateRewardsWall",
            "outputs": [],
            "stateMutability": "nonpayable",
            "type": "function"
        },
        {
            "inputs": [
                {
                    "internalType": "uint256",
                    "name": "value",
                    "type": "uint256"
                }
            ],
            "name": "updateRwSwapFee",
            "outputs": [],
            "stateMutability": "nonpayable",
            "type": "function"
        },
        {
            "inputs": [
                {
                    "internalType": "uint256",
                    "name": "newVal",
                    "type": "uint256"
                }
            ],
            "name": "updateSwapTokensAmount",
            "outputs": [],
            "stateMutability": "nonpayable",
            "type": "function"
        },
        {
            "inputs": [
                {
                    "internalType": "address",
                    "name": "newAddress",
                    "type": "address"
                }
            ],
            "name": "updateUniswapRouter",
            "outputs": [],
            "stateMutability": "nonpayable",
            "type": "function"
        },
        {
            "inputs": [
                {
                    "internalType": "address",
                    "name": "newAddress",
                    "type": "address"
                }
            ],
            "name": "updateUsdcAddres",
            "outputs": [],
            "stateMutability": "nonpayable",
            "type": "function"
        },
        {
            "inputs": [],
            "name": "usdcAddr",
            "outputs": [
                {
                    "internalType": "address",
                    "name": "",
                    "type": "address"
                }
            ],
            "stateMutability": "view",
            "type": "function"
        },
        {
            "inputs": [
                {
                    "internalType": "uint256",
                    "name": "amount",
                    "type": "uint256"
                }
            ],
            "name": "withdraw",
            "outputs": [],
            "stateMutability": "nonpayable",
            "type": "function"
        },
        {
            "inputs": [
                {
                    "internalType": "uint256",
                    "name": "amount",
                    "type": "uint256"
                }
            ],
            "name": "withdrawLDN",
            "outputs": [],
            "stateMutability": "nonpayable",
            "type": "function"
        },
        {
            "stateMutability": "payable",
            "type": "receive"
        }
    ],
    "bytecode": "0x608060405234801561001057600080fd5b50615fe080620000216000396000f3fe60806040526004361061043a5760003560e01c8063715018a611610231578063b62496f511610132578063b62496f514610cb1578063ba76b56814610ce1578063bbc6799814610d01578063bce7049a14610d21578063c5ca7d6d14610d41578063ca34838d14610d61578063ca721f2214610d81578063cc6b4c3b14610d96578063cdf19b6c14610db6578063d05a17a414610dd6578063d061943914610df6578063d0e30db014610441578063d6a0d2ee14610e23578063d892934214610e38578063d8a911d914610e58578063dba8fe1914610e78578063dd62ed3e14610e98578063e92f240714610eb8578063ef63056314610ed8578063f0c2ddf014610ef8578063f2fde38b14610f18578063f54be16514610f38578063f598194914610f58578063f907069014610f6e57005b8063715018a614610a215780637437681e14610a365780637b9d0c9914610a4c5780637ce71b3a14610a6c578063833aee3f14610a8c5780638402c26a14610a9f5780638765b8ec14610abf57806388c41d7c14610adf5780638bc9c7b014610aff5780638da5cb5b14610b1f578063903e4fc314610b34578063908bb2ae14610b5b5780639349c47d14610b7b578063958c2e5214610b9b57806395d89b4114610bbb5780639d76ea5814610bd0578063a0a8fe6514610bf0578063a3c3dde314610c05578063a457c2d714610c1b578063a538ddf214610c3b578063a9059cbb14610c5b578063aa12998614610c7b578063ab57476114610c9b57005b80632e1a7d4d1161033b5780632e1a7d4d14610764578063313ce5671461078457806333f8cbd5146107a057806339509351146107c05780633c1624d4146107e05780633f8bdd221461080057806342bc9fca1461082057806343cbfe941461084057806349bd5a5e146108605780634c0768fc146108805780634c7f490e146108a05780634cc25288146108c05780634f4ab041146108e0578063545579731461090057806354f12f1f14610915578063580befd91461092b578063583bd7a61461094b578063599270441461096b5780635e69070f1461098b5780635f1c3182146109ab5780636770474b146109c15780636bc0f3e2146109e157806370a0823114610a0157005b806306fdde0314610443578063084a6bff1461046e578063095ea7b31461048e5780630c08f300146104be5780630ec52ca7146104de5780630f512fc7146104fe57806311b218f11461052e57806313114a9d1461054e5780631694505e1461057257806318160ddd1461059f578063196c07b4146105b45780631bbc1afa146105d45780631cdd3be3146105f45780631d531c88146106245780632028370414610644578063215d559a14610664578063221715491461067e578063234c847f1461069e57806323b872dd146106be57806326a4e8d2146106de5780632744ea13146106fe5780632a6078411461072e5780632bb14e1d1461074e57005b3661044157005b005b34801561044f57600080fd5b50610458610f8e565b6040516104659190615231565b60405180910390f35b34801561047a57600080fd5b50610441610489366004615244565b611020565b34801561049a57600080fd5b506104ae6104a9366004615282565b61104d565b6040519015158152602001610465565b3480156104ca57600080fd5b506104416104d93660046152ae565b611065565b3480156104ea57600080fd5b506104416104f93660046152d9565b61108f565b34801561050a57600080fd5b506104ae6105193660046152ae565b60e76020526000908152604090205460ff1681565b34801561053a57600080fd5b506104416105493660046152ae565b611108565b34801561055a57600080fd5b5061056460e05481565b604051908152602001610465565b34801561057e57600080fd5b5060cd54610592906001600160a01b031681565b60405161046591906152f6565b3480156105ab57600080fd5b50603554610564565b3480156105c057600080fd5b506104416105cf36600461530a565b61115a565b3480156105e057600080fd5b506104416105ef366004615244565b6111f5565b34801561060057600080fd5b506104ae61060f3660046152ae565b60cb6020526000908152604090205460ff1681565b34801561063057600080fd5b5061056461063f3660046153e1565b611202565b34801561065057600080fd5b5061044161065f366004615439565b611328565b34801561067057600080fd5b5060e9546104ae9060ff1681565b34801561068a57600080fd5b5060ca54610592906001600160a01b031681565b3480156106aa57600080fd5b506104416106b9366004615488565b611494565b3480156106ca57600080fd5b506104ae6106d93660046154c1565b6114a6565b3480156106ea57600080fd5b506104416106f93660046152ae565b6114ca565b34801561070a57600080fd5b506104ae6107193660046152ae565b60cc6020526000908152604090205460ff1681565b34801561073a57600080fd5b5060d854610592906001600160a01b031681565b34801561075a57600080fd5b5061056460dc5481565b34801561077057600080fd5b5061044161077f366004615244565b6114f4565b34801561079057600080fd5b5060405160128152602001610465565b3480156107ac57600080fd5b506104416107bb366004615502565b611530565b3480156107cc57600080fd5b506104ae6107db366004615282565b6117d2565b3480156107ec57600080fd5b506104416107fb3660046152ae565b6117f4565b34801561080c57600080fd5b5061044161081b3660046152ae565b611828565b34801561082c57600080fd5b5061044161083b366004615244565b611852565b34801561084c57600080fd5b5061044161085b3660046152ae565b611870565b34801561086c57600080fd5b5060d354610592906001600160a01b031681565b34801561088c57600080fd5b5061044161089b3660046152d9565b61189a565b3480156108ac57600080fd5b506105646108bb3660046152ae565b6118b5565b3480156108cc57600080fd5b506104416108db3660046152d9565b61193c565b3480156108ec57600080fd5b5060c954610592906001600160a01b031681565b34801561090c57600080fd5b50610441611962565b34801561092157600080fd5b5061056460dd5481565b34801561093757600080fd5b50610441610946366004615564565b611d0a565b34801561095757600080fd5b506104416109663660046152d9565b611f6d565b34801561097757600080fd5b5060d954610592906001600160a01b031681565b34801561099757600080fd5b506104416109a63660046155a6565b611f8f565b3480156109b757600080fd5b5061056460e25481565b3480156109cd57600080fd5b506104416109dc366004615244565b6123d3565b3480156109ed57600080fd5b506104416109fc3660046155ea565b6123e0565b348015610a0d57600080fd5b50610564610a1c3660046152ae565b612540565b348015610a2d57600080fd5b5061044161255b565b348015610a4257600080fd5b5061056460e65481565b348015610a5857600080fd5b5060db54610592906001600160a01b031681565b348015610a7857600080fd5b50610441610a873660046152ae565b61256f565b610441610a9a3660046155a6565b612599565b348015610aab57600080fd5b50610441610aba366004615630565b612891565b348015610acb57600080fd5b50610441610ada3660046152d9565b612c6d565b348015610aeb57600080fd5b50610441610afa366004615244565b612c91565b348015610b0b57600080fd5b50610441610b1a366004615244565b612caf565b348015610b2b57600080fd5b50610592612cbc565b348015610b4057600080fd5b5060e35461059290600160201b90046001600160a01b031681565b348015610b6757600080fd5b50610441610b763660046152ae565b612ccb565b348015610b8757600080fd5b50610441610b963660046152ae565b612e02565b348015610ba757600080fd5b5060d254610592906001600160a01b031681565b348015610bc757600080fd5b50610458612e2c565b348015610bdc57600080fd5b5060d154610592906001600160a01b031681565b348015610bfc57600080fd5b50610564612e3b565b348015610c1157600080fd5b5061056460e55481565b348015610c2757600080fd5b506104ae610c36366004615282565b612ebd565b348015610c4757600080fd5b5060d654610592906001600160a01b031681565b348015610c6757600080fd5b506104ae610c76366004615282565b612f38565b348015610c8757600080fd5b50610441610c96366004615244565b612f46565b348015610ca757600080fd5b5061056460df5481565b348015610cbd57600080fd5b506104ae610ccc3660046152ae565b60ea6020526000908152604090205460ff1681565b348015610ced57600080fd5b50610441610cfc36600461530a565b6132e6565b348015610d0d57600080fd5b50610441610d1c3660046155a6565b613491565b348015610d2d57600080fd5b50610564610d3c366004615244565b613875565b348015610d4d57600080fd5b5060d754610592906001600160a01b031681565b348015610d6d57600080fd5b50610441610d7c366004615244565b6138a7565b348015610d8d57600080fd5b506104586138bd565b348015610da257600080fd5b50610441610db136600461530a565b61394b565b348015610dc257600080fd5b5060da54610592906001600160a01b031681565b348015610de257600080fd5b50610441610df13660046152d9565b61396b565b348015610e0257600080fd5b50610e16610e1136600461568a565b61398d565b60405161046591906156c6565b348015610e2f57600080fd5b50610564613a12565b348015610e4457600080fd5b50610441610e53366004615488565b613a57565b348015610e6457600080fd5b50610564610e7336600461570a565b613a8a565b348015610e8457600080fd5b50610441610e933660046157de565b613b14565b348015610ea457600080fd5b50610564610eb33660046158ed565b614388565b348015610ec457600080fd5b50610441610ed336600461591b565b6143b3565b348015610ee457600080fd5b5060d454610592906001600160a01b031681565b348015610f0457600080fd5b5060e454610592906001600160a01b031681565b348015610f2457600080fd5b50610441610f333660046152ae565b61443d565b348015610f4457600080fd5b50610441610f53366004615488565b6144b3565b348015610f6457600080fd5b5061056460de5481565b348015610f7a57600080fd5b50610441610f89366004615244565b6144e6565b606060368054610f9d90615952565b80601f0160208091040260200160405190810160405280929190818152602001828054610fc990615952565b80156110165780601f10610feb57610100808354040283529160200191611016565b820191906000526020600020905b815481529060010190602001808311610ff957829003601f168201915b5050505050905090565b6110286144f1565b60dc81905560df5460dd5461103d90836159a3565b61104791906159a3565b60e05550565b60003361105b818585614550565b5060019392505050565b61106d6144f1565b60d680546001600160a01b0319166001600160a01b0392909216919091179055565b6110976144f1565b60e9805460ff191682151590811790915560d054604051636d4b4cc960e01b815260048101929092526001600160a01b031690636d4b4cc990602401600060405180830381600087803b1580156110ed57600080fd5b505af1158015611101573d6000803e3d6000fd5b5050505050565b6111106144f1565b60e38054600160201b600160c01b031916600160201b6001600160a01b039384168102919091179182905560ce8054919092049092166001600160a01b0319909216919091179055565b611166335b6001614674565b60d0546001600160a01b031663628e09a6335b6040516001600160e01b031960e084901b1681526001600160a01b0390911660048201526024810185905260448101849052606401600060405180830381600087803b1580156111c857600080fd5b505af11580156111dc573d6000803e3d6000fd5b505050506111f16111ea3390565b6000614674565b5050565b6111fd6144f1565b60e555565b60ca5460405163409befdf60e01b81526000918291829182916001600160a01b039091169063409befdf9061123d908a908a906004016159bb565b60606040518083038186803b15801561125557600080fd5b505afa158015611269573d6000803e3d6000fd5b505050506040513d601f19601f8201168201806040525081019061128d91906159df565b60c954604051636208194d60e11b815292965092945092506001600160a01b039091169063c410329a906112cd9088908b90889088908890600401615a0d565b60206040518083038186803b1580156112e557600080fd5b505afa1580156112f9573d6000803e3d6000fd5b505050506040513d601f19601f8201168201806040525081019061131d9190615a39565b979650505050505050565b600260975414156113545760405162461bcd60e51b815260040161134b90615a52565b60405180910390fd5b600260975560c9546040516349c541bd60e01b81526001600160a01b03909116906349c541bd90611389908490600401615231565b60206040518083038186803b1580156113a157600080fd5b505afa1580156113b5573d6000803e3d6000fd5b505050506040513d601f19601f820116820180604052508101906113d99190615a89565b15156001146113fa5760405162461bcd60e51b815260040161134b90615aa6565b60e35462010000900460ff166114225760405162461bcd60e51b815260040161134b90615ad2565b60ca5460405163361bd49b60e21b81526001600160a01b039091169063d86f526c90611458903390879087908790600401615afe565b600060405180830381600087803b15801561147257600080fd5b505af1158015611486573d6000803e3d6000fd5b505060016097555050505050565b61149c6144f1565b6111f18282614674565b6000336114b485828561469f565b6114bf858585614713565b506001949350505050565b6114d26144f1565b60d180546001600160a01b0319166001600160a01b0392909216919091179055565b6114fc6144f1565b6040513390819083156108fc029084906000818181858888f1935050505015801561152b573d6000803e3d6000fd5b505050565b600260975414156115535760405162461bcd60e51b815260040161134b90615a52565b600260975560c9546040516349c541bd60e01b81526001600160a01b03909116906349c541bd90611588908490600401615231565b60206040518083038186803b1580156115a057600080fd5b505afa1580156115b4573d6000803e3d6000fd5b505050506040513d601f19601f820116820180604052508101906115d89190615a89565b15156001146115f95760405162461bcd60e51b815260040161134b90615aa6565b6040516370a0823160e01b81526000906001600160a01b038616906370a08231906116289033906004016152f6565b60206040518083038186803b15801561164057600080fd5b505afa158015611654573d6000803e3d6000fd5b505050506040513d601f19601f820116820180604052508101906116789190615a39565b116116955760405162461bcd60e51b815260040161134b90615b35565b6040516331a9108f60e11b81526004810184905233906001600160a01b03861690636352211e9060240160206040518083038186803b1580156116d757600080fd5b505afa1580156116eb573d6000803e3d6000fd5b505050506040513d601f19601f8201168201806040525081019061170f9190615b5b565b6001600160a01b0316146117355760405162461bcd60e51b815260040161134b90615b78565b60e35462010000900460ff1661175d5760405162461bcd60e51b815260040161134b90615ad2565b60ca54604051631a78950960e21b81526001600160a01b03909116906369e25424906117959033908890889088908890600401615b9f565b600060405180830381600087803b1580156117af57600080fd5b505af11580156117c3573d6000803e3d6000fd5b50506001609755505050505050565b60003361105b8185856117e58383614388565b6117ef91906159a3565b614550565b6117fc6144f1565b60d080546001600160a01b039092166001600160a01b0319928316811790915560e48054909216179055565b6118306144f1565b60d480546001600160a01b0319166001600160a01b0392909216919091179055565b61185a6144f1565b60dd81905560df5460dc5461103d9083906159a3565b6118786144f1565b60c980546001600160a01b0319166001600160a01b0392909216919091179055565b6118a26144f1565b60e3805460ff1916911515919091179055565b60c95460405163263fa48760e11b81526000916001600160a01b031690634c7f490e906118e69085906004016152f6565b60206040518083038186803b1580156118fe57600080fd5b505afa158015611912573d6000803e3d6000fd5b505050506040513d601f19601f820116820180604052508101906119369190615a39565b92915050565b6119446144f1565b60e3805491151563010000000263ff00000019909216919091179055565b60e3546301000000900460ff1661198b5760405162461bcd60e51b815260040161134b90615ad2565b60c954604051636574a9af60e01b815233916000916001600160a01b0390911690636574a9af906119c09085906004016152f6565b602060405180830381600087803b1580156119da57600080fd5b505af11580156119ee573d6000803e3d6000fd5b505050506040513d601f19601f82011682018060405250810190611a129190615a39565b905060008111611a345760405162461bcd60e51b815260040161134b90615bd9565b6000611a3f30612540565b60e25460e15491925082101590610100900460ff168015611a5d5750805b15611a9f576000611a846064611a7e60df54866147eb90919063ffffffff16565b906147f7565b60d654909150611a9d906001600160a01b031682614803565b505b60d754611ab6906001600160a01b03168585614880565b604080518481524260208201526001600160a01b03861691600080516020615f6b833981519152910160405180910390a260c95460405163a03b41f160e01b81526001600160a01b039091169063a03b41f190611b179087906004016152f6565b60206040518083038186803b158015611b2f57600080fd5b505afa158015611b43573d6000803e3d6000fd5b505050506040513d601f19601f82011682018060405250810190611b679190615a89565b151560011415611d045760005b60c95460405163263fa48760e11b81526001600160a01b0390911690634c7f490e90611ba49088906004016152f6565b60206040518083038186803b158015611bbc57600080fd5b505afa158015611bd0573d6000803e3d6000fd5b505050506040513d601f19601f82011682018060405250810190611bf49190615a39565b811015611ca05760c954604051633777279d60e11b81526001600160a01b0390911690636eee4f3a90611c2b9088906004016152f6565b600060405180830381600087803b158015611c4557600080fd5b505af1158015611c59573d6000803e3d6000fd5b50505050846001600160a01b0316600080516020615f8b83398151915242604051611c8691815260200190565b60405180910390a280611c9881615bfc565b915050611b74565b5060c954604051633777279d60e11b81526001600160a01b0390911690636eee4f3a90611cd19087906004016152f6565b600060405180830381600087803b158015611ceb57600080fd5b505af1158015611cff573d6000803e3d6000fd5b505050505b50505050565b60026097541415611d2d5760405162461bcd60e51b815260040161134b90615a52565b600260975560c9546040516349c541bd60e01b81526001600160a01b03909116906349c541bd90611d62908490600401615231565b60206040518083038186803b158015611d7a57600080fd5b505afa158015611d8e573d6000803e3d6000fd5b505050506040513d601f19601f82011682018060405250810190611db29190615a89565b1515600114611dd35760405162461bcd60e51b815260040161134b90615aa6565b60e35462010000900460ff16611dfb5760405162461bcd60e51b815260040161134b90615ad2565b6040516370a0823160e01b81526000906001600160a01b038516906370a0823190611e2a9033906004016152f6565b60206040518083038186803b158015611e4257600080fd5b505afa158015611e56573d6000803e3d6000fd5b505050506040513d601f19601f82011682018060405250810190611e7a9190615a39565b11611e975760405162461bcd60e51b815260040161134b90615b35565b6040516331a9108f60e11b81526004810183905233906001600160a01b03851690636352211e9060240160206040518083038186803b158015611ed957600080fd5b505afa158015611eed573d6000803e3d6000fd5b505050506040513d601f19601f82011682018060405250810190611f119190615b5b565b6001600160a01b031614611f375760405162461bcd60e51b815260040161134b90615b78565b60ca5460405163f269080d60e01b81526001600160a01b039091169063f269080d90611458903390879087908790600401615c17565b611f756144f1565b60e180549115156101000261ff0019909216919091179055565b60e35462010000900460ff16611fb75760405162461bcd60e51b815260040161134b90615ad2565b60ca5460405163409befdf60e01b815233916000918291829182916001600160a01b03169063409befdf90611ff29088908b906004016159bb565b60606040518083038186803b15801561200a57600080fd5b505afa15801561201e573d6000803e3d6000fd5b505050506040513d601f19601f8201168201806040525081019061204291906159df565b60c95460405163c65cd72f60e01b815292965092945092506001600160a01b039091169063c65cd72f906120829089908990889088908890600401615a0d565b602060405180830381600087803b15801561209c57600080fd5b505af11580156120b0573d6000803e3d6000fd5b505050506040513d601f19601f820116820180604052508101906120d49190615a39565b9350600084116120f65760405162461bcd60e51b815260040161134b90615bd9565b600061210130612540565b60e25460e15491925082101590610100900460ff16801561211f5750805b1561215b5760006121406064611a7e60df54866147eb90919063ffffffff16565b60d654909150612159906001600160a01b031682614803565b505b60d754612172906001600160a01b03168888614880565b604080518781524260208201526001600160a01b03891691600080516020615f6b833981519152910160405180910390a260c954604051630384081560e41b81526001600160a01b03909116906338408150906121d5908a908c90600401615c4a565b60206040518083038186803b1580156121ed57600080fd5b505afa158015612201573d6000803e3d6000fd5b505050506040513d601f19601f820116820180604052508101906122259190615a89565b1515600114156123c85760005b60c95460405163e63f9de760e01b81526001600160a01b039091169063e63f9de790612264908c908c90600401615c63565b60206040518083038186803b15801561227c57600080fd5b505afa158015612290573d6000803e3d6000fd5b505050506040513d601f19601f820116820180604052508101906122b49190615a39565b8110156123625760c95460405163d760a54360e01b81526001600160a01b039091169063d760a543906122ed908c908c90600401615c63565b600060405180830381600087803b15801561230757600080fd5b505af115801561231b573d6000803e3d6000fd5b50505050876001600160a01b0316600080516020615f8b8339815191524260405161234891815260200190565b60405180910390a28061235a81615bfc565b915050612232565b5060c95460405163d760a54360e01b81526001600160a01b039091169063d760a54390612395908b908b90600401615c63565b600060405180830381600087803b1580156123af57600080fd5b505af11580156123c3573d6000803e3d6000fd5b505050505b505050505050505050565b6123db6144f1565b60e255565b600260975414156124035760405162461bcd60e51b815260040161134b90615a52565b600260975560c9546040516349c541bd60e01b81526001600160a01b03909116906349c541bd90612438908490600401615231565b60206040518083038186803b15801561245057600080fd5b505afa158015612464573d6000803e3d6000fd5b505050506040513d601f19601f820116820180604052508101906124889190615a89565b15156001146124a95760405162461bcd60e51b815260040161134b90615aa6565b60e35462010000900460ff166124d15760405162461bcd60e51b815260040161134b90615ad2565b60ca5460405163dbde413560e01b81526001600160a01b039091169063dbde41359061250590339086908690600401615c7a565b600060405180830381600087803b15801561251f57600080fd5b505af1158015612533573d6000803e3d6000fd5b5050600160975550505050565b6001600160a01b031660009081526033602052604090205490565b6125636144f1565b61256d6000614a59565b565b6125776144f1565b60ca80546001600160a01b0319166001600160a01b0392909216919091179055565b600260975414156125bc5760405162461bcd60e51b815260040161134b90615a52565b600260975560e354610100900460ff166125e85760405162461bcd60e51b815260040161134b90615ad2565b60e55460c95460405163263fa48760e11b81526001600160a01b0390911690634c7f490e9061261b9033906004016152f6565b60206040518083038186803b15801561263357600080fd5b505afa158015612647573d6000803e3d6000fd5b505050506040513d601f19601f8201168201806040525081019061266b9190615a39565b108015612679575060e55481105b6126b65760405162461bcd60e51b815260206004820152600e60248201526d13585e081c195c881dd85b1b195d60921b604482015260640161134b565b60c9546040516349c541bd60e01b81526001600160a01b03909116906349c541bd906126e6908590600401615231565b60206040518083038186803b1580156126fe57600080fd5b505afa158015612712573d6000803e3d6000fd5b505050506040513d601f19601f820116820180604052508101906127369190615a89565b15156001146127575760405162461bcd60e51b815260040161134b90615aa6565b60c9546040516308ab945d60e21b8152600091670de0b6b3a7640000916127f09185916001600160a01b03909116906322ae51749061279a908990600401615231565b60206040518083038186803b1580156127b257600080fd5b505afa1580156127c6573d6000803e3d6000fd5b505050506040513d601f19601f820116820180604052508101906127ea9190615a39565b906147eb565b6127fa9190615caa565b905061280e81670de0b6b3a7640000615ccc565b34101561285d5760405162461bcd60e51b815260206004820181905260248201527f4e65656420746f2073656e6420657861637420616d6f756e74206f6620776569604482015260640161134b565b60c9546040516373194deb60e01b815233916001600160a01b0316906373194deb9061179590849088908890600401615ceb565b600260975414156128b45760405162461bcd60e51b815260040161134b90615a52565b600260975560e35460ff166128db5760405162461bcd60e51b815260040161134b90615ad2565b6001600160a01b038116600090815260cc602052604090205460ff166129325760405162461bcd60e51b815260206004820152600c60248201526b0cae4c640dcdee840c2eae8d60a31b604482015260640161134b565b60c9546040516349c541bd60e01b81526001600160a01b03909116906349c541bd90612962908690600401615231565b60206040518083038186803b15801561297a57600080fd5b505afa15801561298e573d6000803e3d6000fd5b505050506040513d601f19601f820116820180604052508101906129b29190615a89565b15156001146129d35760405162461bcd60e51b815260040161134b90615aa6565b6001600160a01b038116612a235760405162461bcd60e51b8152602060048201526017602482015276151bdad95b881859191c995cdcc81b9bdd08195e1a5cdd604a1b604482015260640161134b565b60cf80546001600160a01b0319166001600160a01b038381169190911790915560c954604051633e22d10d60e21b81523392600092869291169063f88b443490612a71908990600401615231565b60206040518083038186803b158015612a8957600080fd5b505afa158015612a9d573d6000803e3d6000fd5b505050506040513d601f19601f82011682018060405250810190612ac19190615a39565b612acb9190615ccc565b60cf546040516370a0823160e01b815291925082916001600160a01b03909116906370a0823190612b009086906004016152f6565b60206040518083038186803b158015612b1857600080fd5b505afa158015612b2c573d6000803e3d6000fd5b505050506040513d601f19601f82011682018060405250810190612b509190615a39565b1015612b6e5760405162461bcd60e51b815260040161134b90615d1f565b60cf546040516323b872dd60e01b81526001600160a01b03848116600483015230602483015260448201849052909116906323b872dd90606401602060405180830381600087803b158015612bc257600080fd5b505af1158015612bd6573d6000803e3d6000fd5b505050506040513d601f19601f82011682018060405250810190612bfa9190615a89565b5060c9546040516373194deb60e01b81526001600160a01b03909116906373194deb90612c2f90859089908990600401615ceb565b600060405180830381600087803b158015612c4957600080fd5b505af1158015612c5d573d6000803e3d6000fd5b5050600160975550505050505050565b612c756144f1565b60e38054911515620100000262ff000019909216919091179055565b612c996144f1565b60df81905560dd5460dc54829161103d916159a3565b612cb76144f1565b60de55565b6065546001600160a01b031690565b612cd36144f1565b60008190506000816001600160a01b031663c45a01556040518163ffffffff1660e01b815260040160206040518083038186803b158015612d1357600080fd5b505afa158015612d27573d6000803e3d6000fd5b505050506040513d601f19601f82011682018060405250810190612d4b9190615b5b565b60ce546040516364e329cb60e11b81526001600160a01b039283169263c9c6539692612d7f92309290911690600401615d48565b602060405180830381600087803b158015612d9957600080fd5b505af1158015612dad573d6000803e3d6000fd5b505050506040513d601f19601f82011682018060405250810190612dd19190615b5b565b60cd80546001600160a01b039485166001600160a01b03199182161790915560d38054929094169116179091555050565b612e0a6144f1565b60d780546001600160a01b0319166001600160a01b0392909216919091179055565b606060378054610f9d90615952565b60c9546040805163a0a8fe6560e01b815290516000926001600160a01b03169163a0a8fe65916004808301926020929190829003018186803b158015612e8057600080fd5b505afa158015612e94573d6000803e3d6000fd5b505050506040513d601f19601f82011682018060405250810190612eb89190615a39565b905090565b60003381612ecb8286614388565b905083811015612f2b5760405162461bcd60e51b815260206004820152602560248201527f45524332303a2064656372656173656420616c6c6f77616e63652062656c6f77604482015264207a65726f60d81b606482015260840161134b565b6114bf8286868403614550565b60003361105b818585614713565b60e3546301000000900460ff16612f6f5760405162461bcd60e51b815260040161134b90615ad2565b60c954604051626d2da560e61b815233916000916001600160a01b0390911690631b4b694090612fa59085908790600401615c4a565b602060405180830381600087803b158015612fbf57600080fd5b505af1158015612fd3573d6000803e3d6000fd5b505050506040513d601f19601f82011682018060405250810190612ff79190615a39565b9050600081116130195760405162461bcd60e51b815260040161134b90615bd9565b600061302430612540565b60e25460e15491925082101590610100900460ff1680156130425750805b1561307e5760006130636064611a7e60df54866147eb90919063ffffffff16565b60d65490915061307c906001600160a01b031682614803565b505b60d754613095906001600160a01b03168585614880565b604080518481524260208201526001600160a01b03861691600080516020615f6b833981519152910160405180910390a260c954604051630384081560e41b81526001600160a01b03909116906338408150906130f89087908990600401615c4a565b60206040518083038186803b15801561311057600080fd5b505afa158015613124573d6000803e3d6000fd5b505050506040513d601f19601f820116820180604052508101906131489190615a89565b1515600114156111015760005b60c95460405163e63f9de760e01b81526001600160a01b039091169063e63f9de7906131879089908990600401615c63565b60206040518083038186803b15801561319f57600080fd5b505afa1580156131b3573d6000803e3d6000fd5b505050506040513d601f19601f820116820180604052508101906131d79190615a39565b8110156132855760c95460405163d760a54360e01b81526001600160a01b039091169063d760a543906132109089908990600401615c63565b600060405180830381600087803b15801561322a57600080fd5b505af115801561323e573d6000803e3d6000fd5b50505050846001600160a01b0316600080516020615f8b8339815191524260405161326b91815260200190565b60405180910390a28061327d81615bfc565b915050613155565b5060c95460405163d760a54360e01b81526001600160a01b039091169063d760a543906132b89088908890600401615c63565b600060405180830381600087803b1580156132d257600080fd5b505af11580156123c8573d6000803e3d6000fd5b6132ee6144f1565b60006132fd82620f4240615ccc565b60cd549091506133189030906001600160a01b031685614550565b60ce5460cd54613335916001600160a01b03908116911683614550565b60e35460cd54613359916001600160a01b03600160201b9091048116911683614550565b60e35460cd5460405163095ea7b360e01b81526001600160a01b03600160201b90930483169263095ea7b392613396929116908590600401615c4a565b602060405180830381600087803b1580156133b057600080fd5b505af11580156133c4573d6000803e3d6000fd5b505050506040513d601f19601f820116820180604052508101906133e89190615a89565b5060cd5460e35460d85460405162e8e33760e81b81526001600160a01b039384169363e8e3370093613437933093600160201b9092048316928a92899260019283929116904290600401615d62565b606060405180830381600087803b15801561345157600080fd5b505af1158015613465573d6000803e3d6000fd5b505050506040513d601f19601f8201168201806040525081019061348991906159df565b505050505050565b600260975414156134b45760405162461bcd60e51b815260040161134b90615a52565b600260975560e35460ff166134db5760405162461bcd60e51b815260040161134b90615ad2565b60c9546040516349c541bd60e01b81526001600160a01b03909116906349c541bd9061350b908590600401615231565b60206040518083038186803b15801561352357600080fd5b505afa158015613537573d6000803e3d6000fd5b505050506040513d601f19601f8201168201806040525081019061355b9190615a89565b151560011461357c5760405162461bcd60e51b815260040161134b90615aa6565b60d65433906001600160a01b031681148015906135a7575060d7546001600160a01b03828116911614155b6135ff5760405162461bcd60e51b815260206004820152602360248201527f667574757220616e642072657761726473506f6f6c2063616e6e6f742063726560448201526261746560e81b606482015260840161134b565b60c9546040516308ab945d60e21b815260009184916001600160a01b03909116906322ae517490613634908890600401615231565b60206040518083038186803b15801561364c57600080fd5b505afa158015613660573d6000803e3d6000fd5b505050506040513d601f19601f820116820180604052508101906136849190615a39565b61368e9190615ccc565b90508061369a83612540565b10156136b85760405162461bcd60e51b815260040161134b90615d1f565b6136c3823083614880565b60006136ce30612540565b60e254909150811080159081906136ec575060e154610100900460ff165b80156136fb575060e15460ff16155b8015613715575060d4546001600160a01b03858116911614155b156138025760e1805460ff1916600117905560df5460009061373f90606490611a7e9086906147eb565b60d654909150613758906001600160a01b031682614803565b60006137746064611a7e60dc54876147eb90919063ffffffff16565b905060006137926064611a7e60de54856147eb90919063ffffffff16565b60d7549091506137ab906001600160a01b031682614803565b60d7546137cc9030906001600160a01b03166137c78585614aab565b614880565b60006137e86064611a7e60dd54896147eb90919063ffffffff16565b90506137f381614ab7565b505060e1805460ff1916905550505b60c9546040516373194deb60e01b81526001600160a01b03909116906373194deb906138369087908a908a90600401615ceb565b600060405180830381600087803b15801561385057600080fd5b505af1158015613864573d6000803e3d6000fd5b505060016097555050505050505050565b60c954604051635e73824d60e11b8152600481018390526000916001600160a01b03169063bce7049a906024016118e6565b6138af6144f1565b6138ba303383614880565b50565b60d580546138ca90615952565b80601f01602080910402602001604051908101604052809291908181526020018280546138f690615952565b80156139435780601f1061391857610100808354040283529160200191613943565b820191906000526020600020905b81548152906001019060200180831161392657829003601f168201915b505050505081565b6139543361115f565b60d0546001600160a01b03166367d33f5b33611179565b6139736144f1565b60e380549115156101000261ff0019909216919091179055565b60c95460405163d061943960e01b81526060916001600160a01b03169063d0619439906139be908590600401615231565b60006040518083038186803b1580156139d657600080fd5b505afa1580156139ea573d6000803e3d6000fd5b505050506040513d6000823e601f3d908101601f191682016040526119369190810190615dab565b60c95460408051636b50697760e11b815290516000926001600160a01b03169163d6a0d2ee916004808301926020929190829003018186803b158015612e8057600080fd5b613a5f6144f1565b6001600160a01b0391909116600090815260cb60205260409020805460ff1916911515919091179055565b60c95460405163d8a911d960e01b81526000916001600160a01b03169063d8a911d990613abd9086908690600401615e30565b60206040518083038186803b158015613ad557600080fd5b505afa158015613ae9573d6000803e3d6000fd5b505050506040513d601f19601f82011682018060405250810190613b0d9190615a39565b9392505050565b600054610100900460ff1615808015613b345750600054600160ff909116105b80613b4e5750303b158015613b4e575060005460ff166001145b613bb15760405162461bcd60e51b815260206004820152602e60248201527f496e697469616c697a61626c653a20636f6e747261637420697320616c72656160448201526d191e481a5b9a5d1a585b1a5e995960921b606482015260840161134b565b6000805460ff191660011790558015613bd4576000805461ff0019166101001790555b613c23604051806040016040528060128152602001712637b0b232b2102737b232b9902a37b5b2b760711b8152506040518060400160405280600381526020016226222760e91b815250614d3c565b613c2b614d6d565b60d480546001600160a01b0319163317905586518790600090613c5057613c50615e5a565b602002602001015160d660006101000a8154816001600160a01b0302191690836001600160a01b0316021790555086600181518110613c9157613c91615e5a565b602002602001015160d760006101000a8154816001600160a01b0302191690836001600160a01b0316021790555086600281518110613cd257613cd2615e5a565b602002602001015160d860006101000a8154816001600160a01b0302191690836001600160a01b0316021790555086600381518110613d1357613d13615e5a565b602002602001015160d960006101000a8154816001600160a01b0302191690836001600160a01b0316021790555086600481518110613d5457613d54615e5a565b602090810291909101015160db80546001600160a01b03199081166001600160a01b039384161790915560d2805490911684831617905560d6541615801590613da7575060d7546001600160a01b031615155b8015613dbd575060d8546001600160a01b031615155b8015613dd3575060d9546001600160a01b031615155b8015613de9575060db546001600160a01b031615155b613e475760405162461bcd60e51b815260206004820152602960248201527f5245574152442c504f4f4c26524f5554455220414444524553532043414e4e4f60448201526854204245205a45524f60b81b606482015260840161134b565b84600081518110613e5a57613e5a615e5a565b6020026020010151600014158015613e8d575084600181518110613e8057613e80615e5a565b6020026020010151600014155b8015613eb4575084600281518110613ea757613ea7615e5a565b6020026020010151600014155b8015613edb575084600381518110613ece57613ece615e5a565b6020026020010151600014155b613f125760405162461bcd60e51b8152602060048201526008602482015267046656573203d20360c41b604482015260640161134b565b84600081518110613f2557613f25615e5a565b602002602001015160df8190555084600181518110613f4657613f46615e5a565b602002602001015160dc8190555084600281518110613f6757613f67615e5a565b602002602001015160dd8190555084600381518110613f8857613f88615e5a565b602002602001015160de8190555060df5460dd5460dc54613fa991906159a3565b613fb391906159a3565b60e055865115801590613fc7575060008651115b6140095760405162461bcd60e51b81526020600482015260136024820152726172726179206c656e677468203e207a65726f60681b604482015260640161134b565b85518751146140535760405162461bcd60e51b81526020600482015260166024820152750c2e4e4c2f2e640d8cadccee8d040dad2e6dac2e8c6d60531b604482015260640161134b565b60005b875181101561410a576140ae88828151811061407457614074615e5a565b602002602001015188838151811061408e5761408e615e5a565b6020026020010151670de0b6b3a76400006140a99190615ccc565b614d9c565b600160e760008a84815181106140c6576140c6615e5a565b6020908102919091018101516001600160a01b03168252810191909152604001600020805460ff19169115159190911790558061410281615bfc565b915050614056565b5060355469d3c21bcecceda10000001461415d5760405162461bcd60e51b815260206004820152601460248201527336bab9ba1032b8bab0b610189036b4b63634b7b760611b604482015260640161134b565b600084116141a05760405162461bcd60e51b815260206004820152601060248201526f185b5bdd5b9d081a5b98dbdc9c9958dd60821b604482015260640161134b565b6141b284670de0b6b3a7640000615ccc565b60e25560e1805461010061ff001990911617905560e38054600160201b600160c01b031916600160201b6001600160a01b038681168202929092179283905560ce80549190930482166001600160a01b03199091161790915560d2546040805163c45a015560e01b815290519190921691600091839163c45a0155916004808301926020929190829003018186803b15801561424d57600080fd5b505afa158015614261573d6000803e3d6000fd5b505050506040513d601f19601f820116820180604052508101906142859190615b5b565b60ce546040516364e329cb60e11b81526001600160a01b039283169263c9c65396926142b992309290911690600401615d48565b602060405180830381600087803b1580156142d357600080fd5b505af11580156142e7573d6000803e3d6000fd5b505050506040513d601f19601f8201168201806040525081019061430b9190615b5b565b60cd80546001600160a01b039485166001600160a01b03199182161790915560d380549290941691161790915550801561437f576000805461ff0019169055604051600181527f7f26b83ff96e1f2b6a682f133852f6798a09c465da95921460cefb38474024989060200160405180910390a15b50505050505050565b6001600160a01b03918216600090815260346020908152604080832093909416825291909152205490565b6143bb6144f1565b60405163a9059cbb60e01b815281906001600160a01b0382169063a9059cbb906143eb9087908790600401615c4a565b602060405180830381600087803b15801561440557600080fd5b505af1158015614419573d6000803e3d6000fd5b505050506040513d601f19601f820116820180604052508101906111019190615a89565b6144456144f1565b6001600160a01b0381166144aa5760405162461bcd60e51b815260206004820152602660248201527f4f776e61626c653a206e6577206f776e657220697320746865207a65726f206160448201526564647265737360d01b606482015260840161134b565b6138ba81614a59565b6144bb6144f1565b6001600160a01b0391909116600090815260cc60205260409020805460ff1916911515919091179055565b6138ba333083614880565b336144fa612cbc565b6001600160a01b03161461256d5760405162461bcd60e51b815260206004820181905260248201527f4f776e61626c653a2063616c6c6572206973206e6f7420746865206f776e6572604482015260640161134b565b6001600160a01b0383166145b25760405162461bcd60e51b8152602060048201526024808201527f45524332303a20617070726f76652066726f6d20746865207a65726f206164646044820152637265737360e01b606482015260840161134b565b6001600160a01b0382166146135760405162461bcd60e51b815260206004820152602260248201527f45524332303a20617070726f766520746f20746865207a65726f206164647265604482015261737360f01b606482015260840161134b565b6001600160a01b0383811660008181526034602090815260408083209487168084529482529182902085905590518481527f8c5be1e5ebec7d5bd14f71427d1e84f3dd0314c0f7b2291e5b200ac8c7c3b925910160405180910390a3505050565b6001600160a01b0391909116600090815260e860205260409020805460ff1916911515919091179055565b60006146ab8484614388565b90506000198114611d0457818110156147065760405162461bcd60e51b815260206004820152601d60248201527f45524332303a20696e73756666696369656e7420616c6c6f77616e6365000000604482015260640161134b565b611d048484848403614550565b6001600160a01b0383166147395760405162461bcd60e51b815260040161134b90615e70565b6001600160a01b03821661475f5760405162461bcd60e51b815260040161134b90615e70565b6001600160a01b038316600090815260cb602052604090205460ff161580156147a157506001600160a01b038216600090815260cb602052604090205460ff16155b6147e05760405162461bcd60e51b815260206004820152601060248201526f213630b1b5b634b9ba32b21030b2323960811b604482015260640161134b565b61152b838383614880565b6000613b0d8284615ccc565b6000613b0d8284615caa565b60e45461481b9030906001600160a01b031683614550565b60d0546040516332fa35cb60e11b81526001600160a01b03909116906365f46b969061485290309086908690600a90600401615e90565b600060405180830381600087803b15801561486c57600080fd5b505af1158015613489573d6000803e3d6000fd5b6001600160a01b0383166148e45760405162461bcd60e51b815260206004820152602560248201527f45524332303a207472616e736665722066726f6d20746865207a65726f206164604482015264647265737360d81b606482015260840161134b565b6001600160a01b0382166149465760405162461bcd60e51b815260206004820152602360248201527f45524332303a207472616e7366657220746f20746865207a65726f206164647260448201526265737360e81b606482015260840161134b565b614951838383614e87565b6001600160a01b038316600090815260336020526040902054818110156149c95760405162461bcd60e51b815260206004820152602660248201527f45524332303a207472616e7366657220616d6f756e7420657863656564732062604482015265616c616e636560d01b606482015260840161134b565b6001600160a01b03808516600090815260336020526040808220858503905591851681529081208054849290614a009084906159a3565b92505081905550826001600160a01b0316846001600160a01b03167fddf252ad1be2c89b69c2b068fc378daa952ba7f163c4a11628f55a4df523b3ef84604051614a4c91815260200190565b60405180910390a3611d04565b606580546001600160a01b038381166001600160a01b0319831681179093556040519116919082907f8be0079c531659141344cd1fd0a4f28419497f9722a3daafe3b4186f6b6457e090600090a35050565b6000613b0d8284615eb9565b60e354600160201b90046001600160a01b03166000614ad78360026147f7565b90506000614ae58483614aab565b90506000836001600160a01b03166370a08231306040518263ffffffff1660e01b8152600401614b1591906152f6565b60206040518083038186803b158015614b2d57600080fd5b505afa158015614b41573d6000803e3d6000fd5b505050506040513d601f19601f82011682018060405250810190614b659190615a39565b60e454909150614b809030906001600160a01b031687614550565b60d05460c9546040516332fa35cb60e11b81526001600160a01b03928316926365f46b9692614bbc923092909116908890600a90600401615e90565b600060405180830381600087803b158015614bd657600080fd5b505af1158015614bea573d6000803e3d6000fd5b505060c95460e3546040516378a5781760e01b81526001600160a01b0392831694506378a578179350614c2d92600160201b909204909116903090600401615d48565b600060405180830381600087803b158015614c4757600080fd5b505af1158015614c5b573d6000803e3d6000fd5b505050506000614ce782866001600160a01b03166370a08231306040518263ffffffff1660e01b8152600401614c9191906152f6565b60206040518083038186803b158015614ca957600080fd5b505afa158015614cbd573d6000803e3d6000fd5b505050506040513d601f19601f82011682018060405250810190614ce19190615a39565b90614aab565b9050614cf38382614f44565b60408051858152602081018390529081018490527f17bbfb9a6069321b6ded73bd96327c9e6b7212a5cd51ff219cd61370acafb5619060600160405180910390a1505050505050565b600054610100900460ff16614d635760405162461bcd60e51b815260040161134b90615ed0565b6111f182826150cd565b600054610100900460ff16614d945760405162461bcd60e51b815260040161134b90615ed0565b61256d61511b565b6001600160a01b038216614df25760405162461bcd60e51b815260206004820152601f60248201527f45524332303a206d696e7420746f20746865207a65726f206164647265737300604482015260640161134b565b614dfe60008383614e87565b8060356000828254614e1091906159a3565b90915550506001600160a01b03821660009081526033602052604081208054839290614e3d9084906159a3565b90915550506040518181526001600160a01b038316906000907fddf252ad1be2c89b69c2b068fc378daa952ba7f163c4a11628f55a4df523b3ef9060200160405180910390a35050565b60e95460ff161561152b576001600160a01b038316600090815260ea602052604090205460ff1615614eeb576001600160a01b038216600090815260e8602052604090205460ff16614eeb5760405162461bcd60e51b815260040161134b90615f1b565b6001600160a01b038216600090815260ea602052604090205460ff161561152b576001600160a01b038316600090815260e8602052604090205460ff1661152b5760405162461bcd60e51b815260040161134b90615f1b565b60cd54614f5c9030906001600160a01b031684614550565b60e35460cd54614f80916001600160a01b03600160201b9091048116911683614550565b60e35460cd5460405163095ea7b360e01b81526001600160a01b03600160201b90930483169263095ea7b392614fbd929116908590600401615c4a565b602060405180830381600087803b158015614fd757600080fd5b505af1158015614feb573d6000803e3d6000fd5b505050506040513d601f19601f8201168201806040525081019061500f9190615a89565b5060ce5460cd5461502d916001600160a01b03908116911683614550565b60cd5460e35460d85460405162e8e33760e81b81526001600160a01b039384169363e8e337009361507b933093600160201b9092048316928992899260019283929116904290600401615d62565b606060405180830381600087803b15801561509557600080fd5b505af11580156150a9573d6000803e3d6000fd5b505050506040513d601f19601f8201168201806040525081019061110191906159df565b600054610100900460ff166150f45760405162461bcd60e51b815260040161134b90615ed0565b815161510790603690602085019061514b565b50805161152b90603790602084019061514b565b600054610100900460ff166151425760405162461bcd60e51b815260040161134b90615ed0565b61256d33614a59565b82805461515790615952565b90600052602060002090601f01602090048101928261517957600085556151bf565b82601f1061519257805160ff19168380011785556151bf565b828001600101855582156151bf579182015b828111156151bf5782518255916020019190600101906151a4565b506151cb9291506151cf565b5090565b5b808211156151cb57600081556001016151d0565b6000815180845260005b8181101561520a576020818501810151868301820152016151ee565b8181111561521c576000602083870101525b50601f01601f19169290920160200192915050565b602081526000613b0d60208301846151e4565b60006020828403121561525657600080fd5b5035919050565b6001600160a01b03811681146138ba57600080fd5b803561527d8161525d565b919050565b6000806040838503121561529557600080fd5b82356152a08161525d565b946020939093013593505050565b6000602082840312156152c057600080fd5b8135613b0d8161525d565b80151581146138ba57600080fd5b6000602082840312156152eb57600080fd5b8135613b0d816152cb565b6001600160a01b0391909116815260200190565b6000806040838503121561531d57600080fd5b50508035926020909101359150565b634e487b7160e01b600052604160045260246000fd5b604051601f8201601f191681016001600160401b038111828210171561536a5761536a61532c565b604052919050565b600082601f83011261538357600080fd5b81356001600160401b0381111561539c5761539c61532c565b6153af601f8201601f1916602001615342565b8181528460208386010111156153c457600080fd5b816020850160208301376000918101602001919091529392505050565b6000806000606084860312156153f657600080fd5b83356154018161525d565b925060208401356001600160401b0381111561541c57600080fd5b61542886828701615372565b925050604084013590509250925092565b60008060006060848603121561544e57600080fd5b833592506020840135915060408401356001600160401b0381111561547257600080fd5b61547e86828701615372565b9150509250925092565b6000806040838503121561549b57600080fd5b82356154a68161525d565b915060208301356154b6816152cb565b809150509250929050565b6000806000606084860312156154d657600080fd5b83356154e18161525d565b925060208401356154f18161525d565b929592945050506040919091013590565b6000806000806080858703121561551857600080fd5b84356155238161525d565b9350602085013592506040850135915060608501356001600160401b0381111561554c57600080fd5b61555887828801615372565b91505092959194509250565b60008060006060848603121561557957600080fd5b83356155848161525d565b92506020840135915060408401356001600160401b0381111561547257600080fd5b600080604083850312156155b957600080fd5b82356001600160401b038111156155cf57600080fd5b6155db85828601615372565b95602094909401359450505050565b600080604083850312156155fd57600080fd5b8235915060208301356001600160401b0381111561561a57600080fd5b61562685828601615372565b9150509250929050565b60008060006060848603121561564557600080fd5b83356001600160401b0381111561565b57600080fd5b61566786828701615372565b93505060208401359150604084013561567f8161525d565b809150509250925092565b60006020828403121561569c57600080fd5b81356001600160401b038111156156b257600080fd5b6156be84828501615372565b949350505050565b6020808252825182820181905260009190848201906040850190845b818110156156fe578351835292840192918401916001016156e2565b50909695505050505050565b6000806040838503121561571d57600080fd5b82356001600160401b0381111561573357600080fd5b61573f85828601615372565b92505060208301356154b68161525d565b60006001600160401b038211156157695761576961532c565b5060051b60200190565b600082601f83011261578457600080fd5b8135602061579961579483615750565b615342565b82815260059290921b840181019181810190868411156157b857600080fd5b8286015b848110156157d357803583529183019183016157bc565b509695505050505050565b60008060008060008060c087890312156157f757600080fd5b86356001600160401b038082111561580e57600080fd5b818901915089601f83011261582257600080fd5b8135602061583261579483615750565b82815260059290921b8401810191818101908d84111561585157600080fd5b948201945b838610156158785785356158698161525d565b82529482019490820190615856565b9a50508a01359250508082111561588e57600080fd5b61589a8a838b01615773565b965060408901359150808211156158b057600080fd5b506158bd89828a01615773565b945050606087013592506158d360808801615272565b91506158e160a08801615272565b90509295509295509295565b6000806040838503121561590057600080fd5b823561590b8161525d565b915060208301356154b68161525d565b60008060006060848603121561593057600080fd5b833561593b8161525d565b925060208401359150604084013561567f8161525d565b600181811c9082168061596657607f821691505b6020821081141561598757634e487b7160e01b600052602260045260246000fd5b50919050565b634e487b7160e01b600052601160045260246000fd5b600082198211156159b6576159b661598d565b500190565b6001600160a01b03831681526040602082018190526000906156be908301846151e4565b6000806000606084860312156159f457600080fd5b8351925060208401519150604084015190509250925092565b9485526001600160a01b0393909316602085015260408401919091526060830152608082015260a00190565b600060208284031215615a4b57600080fd5b5051919050565b6020808252601f908201527f5265656e7472616e637947756172643a207265656e7472616e742063616c6c00604082015260600190565b600060208284031215615a9b57600080fd5b8151613b0d816152cb565b602080825260129082015271139bd919551e5c19481b9bdd08195e1a5cdd60721b604082015260600190565b6020808252601290820152711b9bdd08185d5d1a1bdc9a5e9959081e595d60721b604082015260600190565b60018060a01b0385168152836020820152826040820152608060608201526000615b2b60808301846151e4565b9695505050505050565b6020808252600c908201526b1b9bc81b999d081bdddb995960a21b604082015260600190565b600060208284031215615b6d57600080fd5b8151613b0d8161525d565b6020808252600d908201526c3737ba103a34329037bbb732b960991b604082015260600190565b6001600160a01b03868116825285166020820152604081018490526060810183905260a06080820181905260009061131d908301846151e4565b6020808252600990820152682737ba3434b733971760b91b604082015260600190565b6000600019821415615c1057615c1061598d565b5060010190565b6001600160a01b0385811682528416602082015260408101839052608060608201819052600090615b2b908301846151e4565b6001600160a01b03929092168252602082015260400190565b9182526001600160a01b0316602082015260400190565b60018060a01b0384168152826020820152606060408201526000615ca160608301846151e4565b95945050505050565b600082615cc757634e487b7160e01b600052601260045260246000fd5b500490565b6000816000190483118215151615615ce657615ce661598d565b500290565b6001600160a01b0384168152606060208201819052600090615d0f908301856151e4565b9050826040830152949350505050565b6020808252600f908201526e42616c616e636520746f6f206c6f7760881b604082015260600190565b6001600160a01b0392831681529116602082015260400190565b6001600160a01b039889168152968816602088015260408701959095526060860193909352608085019190915260a084015290921660c082015260e08101919091526101000190565b60006020808385031215615dbe57600080fd5b82516001600160401b03811115615dd457600080fd5b8301601f81018513615de557600080fd5b8051615df361579482615750565b81815260059190911b82018301908381019087831115615e1257600080fd5b928401925b8284101561131d57835182529284019290840190615e17565b604081526000615e4360408301856151e4565b905060018060a01b03831660208301529392505050565b634e487b7160e01b600052603260045260246000fd5b602080825260069082015265181030b2323960d11b604082015260600190565b6001600160a01b0394851681529290931660208301526040820152606081019190915260800190565b600082821015615ecb57615ecb61598d565b500390565b6020808252602b908201527f496e697469616c697a61626c653a20636f6e7472616374206973206e6f74206960408201526a6e697469616c697a696e6760a81b606082015260800190565b6020808252602f908201527f596f7520617265206e6f7420616c6c6f77656420746f2053574150206469726560408201526e63746c79206f6e2050616e63616b6560881b60608201526080019056fe28e4047285c369a3ed10fc7db9c481a1f68f2e096087163193ece530f9ad43035bf56b53e059a7d36e6f4f06d6e9540fde995a6383057cf7217c127272dd56d2a2646970667358221220e9b26f0d775b0721159966316f8a33813dfec970d8d9d500c7433065da95723064736f6c63430008090033",
    "linkReferences": {},
    "deployedLinkReferences": {}
}