{
    "_format": "hh-sol-artifact-1",
    "contractName": "NodeHandlerV3",
    "sourceName": "src/backend/contracts/nodeHandlerV2.sol",
    "abi": [
        {
            "anonymous": false,
            "inputs": [
                {
                    "indexed": true,
                    "internalType": "address",
                    "name": "owner",
                    "type": "address"
                },
                {
                    "indexed": true,
                    "internalType": "address",
                    "name": "spender",
                    "type": "address"
                },
                {
                    "indexed": false,
                    "internalType": "uint256",
                    "name": "value",
                    "type": "uint256"
                }
            ],
            "name": "Approval",
            "type": "event"
        },
        {
            "anonymous": false,
            "inputs": [
                {
                    "indexed": false,
                    "internalType": "uint256",
                    "name": "rewardAmount",
                    "type": "uint256"
                },
                {
                    "indexed": false,
                    "internalType": "uint256",
                    "name": "claimTime",
                    "type": "uint256"
                },
                {
                    "indexed": true,
                    "internalType": "address",
                    "name": "owner",
                    "type": "address"
                }
            ],
            "name": "CashoutAll",
            "type": "event"
        },
        {
            "anonymous": false,
            "inputs": [
                {
                    "indexed": false,
                    "internalType": "string",
                    "name": "nodeTypeName",
                    "type": "string"
                },
                {
                    "indexed": false,
                    "internalType": "uint256",
                    "name": "creationTime",
                    "type": "uint256"
                },
                {
                    "indexed": true,
                    "internalType": "address",
                    "name": "owner",
                    "type": "address"
                }
            ],
            "name": "Created",
            "type": "event"
        },
        {
            "anonymous": false,
            "inputs": [
                {
                    "indexed": false,
                    "internalType": "uint8",
                    "name": "version",
                    "type": "uint8"
                }
            ],
            "name": "Initialized",
            "type": "event"
        },
        {
            "anonymous": false,
            "inputs": [
                {
                    "indexed": true,
                    "internalType": "address",
                    "name": "from",
                    "type": "address"
                },
                {
                    "indexed": true,
                    "internalType": "address",
                    "name": "to",
                    "type": "address"
                },
                {
                    "indexed": false,
                    "internalType": "uint256",
                    "name": "value",
                    "type": "uint256"
                }
            ],
            "name": "Transfer",
            "type": "event"
        },
        {
            "inputs": [
                {
                    "internalType": "string",
                    "name": "",
                    "type": "string"
                },
                {
                    "internalType": "address",
                    "name": "",
                    "type": "address"
                },
                {
                    "internalType": "uint256",
                    "name": "",
                    "type": "uint256"
                }
            ],
            "name": "_attachedNft",
            "outputs": [
                {
                    "internalType": "address",
                    "name": "",
                    "type": "address"
                }
            ],
            "stateMutability": "view",
            "type": "function"
        },
        {
            "inputs": [
                {
                    "internalType": "address",
                    "name": "account",
                    "type": "address"
                },
                {
                    "internalType": "string",
                    "name": "nodeTypeName",
                    "type": "string"
                },
                {
                    "internalType": "uint256",
                    "name": "count",
                    "type": "uint256"
                }
            ],
            "name": "_createNodes",
            "outputs": [],
            "stateMutability": "nonpayable",
            "type": "function"
        },
        {
            "inputs": [],
            "name": "_defaultNodeTypeName",
            "outputs": [
                {
                    "internalType": "string",
                    "name": "",
                    "type": "string"
                }
            ],
            "stateMutability": "view",
            "type": "function"
        },
        {
            "inputs": [
                {
                    "internalType": "address",
                    "name": "sender",
                    "type": "address"
                }
            ],
            "name": "_doesNeedBurn",
            "outputs": [
                {
                    "internalType": "bool",
                    "name": "",
                    "type": "bool"
                }
            ],
            "stateMutability": "view",
            "type": "function"
        },
        {
            "inputs": [
                {
                    "internalType": "address",
                    "name": "sender",
                    "type": "address"
                },
                {
                    "internalType": "uint256",
                    "name": "index",
                    "type": "uint256"
                }
            ],
            "name": "_doesNeedBurnType",
            "outputs": [
                {
                    "internalType": "bool",
                    "name": "",
                    "type": "bool"
                }
            ],
            "stateMutability": "view",
            "type": "function"
        },
        {
            "inputs": [
                {
                    "internalType": "string",
                    "name": "nodeTypeName",
                    "type": "string"
                }
            ],
            "name": "_doesNodeTypeExist",
            "outputs": [
                {
                    "internalType": "bool",
                    "name": "",
                    "type": "bool"
                }
            ],
            "stateMutability": "view",
            "type": "function"
        },
        {
            "inputs": [],
            "name": "_gateKeeper",
            "outputs": [
                {
                    "internalType": "address",
                    "name": "",
                    "type": "address"
                }
            ],
            "stateMutability": "view",
            "type": "function"
        },
        {
            "inputs": [
                {
                    "internalType": "address",
                    "name": "",
                    "type": "address"
                },
                {
                    "internalType": "uint256",
                    "name": "",
                    "type": "uint256"
                }
            ],
            "name": "_nodeIndexOwner",
            "outputs": [
                {
                    "internalType": "string",
                    "name": "nodeTypeName",
                    "type": "string"
                },
                {
                    "internalType": "uint256",
                    "name": "creationTime",
                    "type": "uint256"
                },
                {
                    "internalType": "uint256",
                    "name": "lastClaimTime",
                    "type": "uint256"
                }
            ],
            "stateMutability": "view",
            "type": "function"
        },
        {
            "inputs": [
                {
                    "internalType": "string",
                    "name": "nodeTypeName",
                    "type": "string"
                },
                {
                    "internalType": "uint256[]",
                    "name": "values",
                    "type": "uint256[]"
                }
            ],
            "name": "addNodeType",
            "outputs": [],
            "stateMutability": "nonpayable",
            "type": "function"
        },
        {
            "inputs": [
                {
                    "internalType": "address[]",
                    "name": "users",
                    "type": "address[]"
                }
            ],
            "name": "addWhitelistFreeNodeAddress",
            "outputs": [],
            "stateMutability": "nonpayable",
            "type": "function"
        },
        {
            "inputs": [
                {
                    "internalType": "address",
                    "name": "owner",
                    "type": "address"
                },
                {
                    "internalType": "address",
                    "name": "spender",
                    "type": "address"
                }
            ],
            "name": "allowance",
            "outputs": [
                {
                    "internalType": "uint256",
                    "name": "",
                    "type": "uint256"
                }
            ],
            "stateMutability": "view",
            "type": "function"
        },
        {
            "inputs": [
                {
                    "internalType": "address",
                    "name": "spender",
                    "type": "address"
                },
                {
                    "internalType": "uint256",
                    "name": "amount",
                    "type": "uint256"
                }
            ],
            "name": "approve",
            "outputs": [
                {
                    "internalType": "bool",
                    "name": "",
                    "type": "bool"
                }
            ],
            "stateMutability": "nonpayable",
            "type": "function"
        },
        {
            "inputs": [
                {
                    "internalType": "address",
                    "name": "account",
                    "type": "address"
                }
            ],
            "name": "balanceOf",
            "outputs": [
                {
                    "internalType": "uint256",
                    "name": "",
                    "type": "uint256"
                }
            ],
            "stateMutability": "view",
            "type": "function"
        },
        {
            "inputs": [
                {
                    "internalType": "uint256",
                    "name": "index",
                    "type": "uint256"
                },
                {
                    "internalType": "address",
                    "name": "sender",
                    "type": "address"
                }
            ],
            "name": "burnNode",
            "outputs": [],
            "stateMutability": "nonpayable",
            "type": "function"
        },
        {
            "inputs": [
                {
                    "internalType": "address",
                    "name": "sender",
                    "type": "address"
                }
            ],
            "name": "burnNodeAll",
            "outputs": [],
            "stateMutability": "nonpayable",
            "type": "function"
        },
        {
            "inputs": [
                {
                    "internalType": "address",
                    "name": "user",
                    "type": "address"
                }
            ],
            "name": "calculateAllClaimableRewards",
            "outputs": [
                {
                    "internalType": "uint256",
                    "name": "",
                    "type": "uint256"
                }
            ],
            "stateMutability": "view",
            "type": "function"
        },
        {
            "inputs": [
                {
                    "internalType": "address",
                    "name": "user",
                    "type": "address"
                },
                {
                    "internalType": "uint256",
                    "name": "index",
                    "type": "uint256"
                }
            ],
            "name": "calculateAllClaimableRewardsType",
            "outputs": [
                {
                    "internalType": "uint256",
                    "name": "",
                    "type": "uint256"
                }
            ],
            "stateMutability": "view",
            "type": "function"
        },
        {
            "inputs": [
                {
                    "internalType": "uint256",
                    "name": "index",
                    "type": "uint256"
                },
                {
                    "internalType": "address",
                    "name": "user",
                    "type": "address"
                },
                {
                    "internalType": "uint256",
                    "name": "feesReduce",
                    "type": "uint256"
                },
                {
                    "internalType": "uint256",
                    "name": "rewardBoost",
                    "type": "uint256"
                },
                {
                    "internalType": "uint256",
                    "name": "timeBoost",
                    "type": "uint256"
                }
            ],
            "name": "calculateAllClaimableRewardsTypeNFT",
            "outputs": [
                {
                    "internalType": "uint256",
                    "name": "",
                    "type": "uint256"
                }
            ],
            "stateMutability": "view",
            "type": "function"
        },
        {
            "inputs": [
                {
                    "internalType": "uint256",
                    "name": "index",
                    "type": "uint256"
                },
                {
                    "internalType": "address",
                    "name": "sender",
                    "type": "address"
                },
                {
                    "internalType": "uint256",
                    "name": "feesReduce",
                    "type": "uint256"
                },
                {
                    "internalType": "uint256",
                    "name": "rewardBoost",
                    "type": "uint256"
                },
                {
                    "internalType": "uint256",
                    "name": "timeBoost",
                    "type": "uint256"
                }
            ],
            "name": "cashoutAllWithNftHandler",
            "outputs": [
                {
                    "internalType": "uint256",
                    "name": "",
                    "type": "uint256"
                }
            ],
            "stateMutability": "nonpayable",
            "type": "function"
        },
        {
            "inputs": [
                {
                    "internalType": "address",
                    "name": "account",
                    "type": "address"
                }
            ],
            "name": "cashoutHandler",
            "outputs": [
                {
                    "internalType": "uint256",
                    "name": "",
                    "type": "uint256"
                }
            ],
            "stateMutability": "nonpayable",
            "type": "function"
        },
        {
            "inputs": [
                {
                    "internalType": "address",
                    "name": "account",
                    "type": "address"
                },
                {
                    "internalType": "uint256",
                    "name": "index",
                    "type": "uint256"
                }
            ],
            "name": "cashoutTypeHandler",
            "outputs": [
                {
                    "internalType": "uint256",
                    "name": "",
                    "type": "uint256"
                }
            ],
            "stateMutability": "nonpayable",
            "type": "function"
        },
        {
            "inputs": [
                {
                    "internalType": "string",
                    "name": "nodeTypeName",
                    "type": "string"
                },
                {
                    "internalType": "uint256",
                    "name": "nodePrice",
                    "type": "uint256"
                },
                {
                    "internalType": "uint256",
                    "name": "claimTime",
                    "type": "uint256"
                },
                {
                    "internalType": "uint256",
                    "name": "rewardAmount",
                    "type": "uint256"
                },
                {
                    "internalType": "uint256",
                    "name": "claimTaxBeforeTime",
                    "type": "uint256"
                },
                {
                    "internalType": "uint256",
                    "name": "testCashoutFee",
                    "type": "uint256"
                },
                {
                    "internalType": "uint256",
                    "name": "max",
                    "type": "uint256"
                },
                {
                    "internalType": "uint256",
                    "name": "maxLevelUpGlobal",
                    "type": "uint256"
                },
                {
                    "internalType": "uint256",
                    "name": "maxLevelUpUser",
                    "type": "uint256"
                },
                {
                    "internalType": "uint256",
                    "name": "burnDate",
                    "type": "uint256"
                },
                {
                    "internalType": "uint256",
                    "name": "nodePricePartener",
                    "type": "uint256"
                }
            ],
            "name": "changeNodeType",
            "outputs": [],
            "stateMutability": "nonpayable",
            "type": "function"
        },
        {
            "inputs": [
                {
                    "internalType": "address[]",
                    "name": "users",
                    "type": "address[]"
                },
                {
                    "internalType": "bool",
                    "name": "value",
                    "type": "bool"
                }
            ],
            "name": "changeWhitelistFreeNode",
            "outputs": [],
            "stateMutability": "nonpayable",
            "type": "function"
        },
        {
            "inputs": [
                {
                    "internalType": "string",
                    "name": "nodeTypeName",
                    "type": "string"
                },
                {
                    "internalType": "uint256",
                    "name": "count",
                    "type": "uint256"
                }
            ],
            "name": "createFreeNode",
            "outputs": [],
            "stateMutability": "nonpayable",
            "type": "function"
        },
        {
            "inputs": [],
            "name": "decimals",
            "outputs": [
                {
                    "internalType": "uint8",
                    "name": "",
                    "type": "uint8"
                }
            ],
            "stateMutability": "view",
            "type": "function"
        },
        {
            "inputs": [
                {
                    "internalType": "address",
                    "name": "spender",
                    "type": "address"
                },
                {
                    "internalType": "uint256",
                    "name": "subtractedValue",
                    "type": "uint256"
                }
            ],
            "name": "decreaseAllowance",
            "outputs": [
                {
                    "internalType": "bool",
                    "name": "",
                    "type": "bool"
                }
            ],
            "stateMutability": "nonpayable",
            "type": "function"
        },
        {
            "inputs": [],
            "name": "deposit",
            "outputs": [],
            "stateMutability": "payable",
            "type": "function"
        },
        {
            "inputs": [
                {
                    "internalType": "address",
                    "name": "_owner",
                    "type": "address"
                }
            ],
            "name": "getNodeEntityOwner",
            "outputs": [
                {
                    "components": [
                        {
                            "internalType": "string",
                            "name": "nodeTypeName",
                            "type": "string"
                        },
                        {
                            "internalType": "uint256",
                            "name": "creationTime",
                            "type": "uint256"
                        },
                        {
                            "internalType": "uint256",
                            "name": "lastClaimTime",
                            "type": "uint256"
                        }
                    ],
                    "internalType": "struct NodeHandlerV3.NodeEntity[]",
                    "name": "",
                    "type": "tuple[]"
                }
            ],
            "stateMutability": "view",
            "type": "function"
        },
        {
            "inputs": [
                {
                    "internalType": "string",
                    "name": "nodeTypeName",
                    "type": "string"
                }
            ],
            "name": "getNodePrice",
            "outputs": [
                {
                    "internalType": "uint256",
                    "name": "",
                    "type": "uint256"
                }
            ],
            "stateMutability": "view",
            "type": "function"
        },
        {
            "inputs": [
                {
                    "internalType": "string",
                    "name": "nodeTypeName",
                    "type": "string"
                }
            ],
            "name": "getNodePricePartenair",
            "outputs": [
                {
                    "internalType": "uint256",
                    "name": "",
                    "type": "uint256"
                }
            ],
            "stateMutability": "view",
            "type": "function"
        },
        {
            "inputs": [
                {
                    "internalType": "string",
                    "name": "nodeTypeName",
                    "type": "string"
                }
            ],
            "name": "getNodeTypeAll",
            "outputs": [
                {
                    "internalType": "uint256[]",
                    "name": "",
                    "type": "uint256[]"
                }
            ],
            "stateMutability": "view",
            "type": "function"
        },
        {
            "inputs": [
                {
                    "internalType": "string",
                    "name": "nodeTypeName",
                    "type": "string"
                },
                {
                    "internalType": "address",
                    "name": "_owner",
                    "type": "address"
                }
            ],
            "name": "getNodeTypeOwner",
            "outputs": [
                {
                    "components": [
                        {
                            "internalType": "string",
                            "name": "nodeTypeName",
                            "type": "string"
                        },
                        {
                            "internalType": "uint256",
                            "name": "creationTime",
                            "type": "uint256"
                        },
                        {
                            "internalType": "uint256",
                            "name": "lastClaimTime",
                            "type": "uint256"
                        }
                    ],
                    "internalType": "struct NodeHandlerV3.NodeEntity[]",
                    "name": "nodeTypeOwner",
                    "type": "tuple[]"
                }
            ],
            "stateMutability": "view",
            "type": "function"
        },
        {
            "inputs": [
                {
                    "internalType": "uint256",
                    "name": "index",
                    "type": "uint256"
                },
                {
                    "internalType": "address",
                    "name": "_owner",
                    "type": "address"
                }
            ],
            "name": "getNodeTypeOwnerNum",
            "outputs": [
                {
                    "internalType": "uint256",
                    "name": "",
                    "type": "uint256"
                }
            ],
            "stateMutability": "view",
            "type": "function"
        },
        {
            "inputs": [
                {
                    "internalType": "string",
                    "name": "nodeTypeName",
                    "type": "string"
                },
                {
                    "internalType": "address",
                    "name": "_owner",
                    "type": "address"
                }
            ],
            "name": "getNodeTypeOwnerNumber",
            "outputs": [
                {
                    "internalType": "uint256",
                    "name": "",
                    "type": "uint256"
                }
            ],
            "stateMutability": "view",
            "type": "function"
        },
        {
            "inputs": [],
            "name": "getNodeTypesSize",
            "outputs": [
                {
                    "internalType": "uint256",
                    "name": "",
                    "type": "uint256"
                }
            ],
            "stateMutability": "view",
            "type": "function"
        },
        {
            "inputs": [],
            "name": "getTotalCreatedNodes",
            "outputs": [
                {
                    "internalType": "uint256",
                    "name": "",
                    "type": "uint256"
                }
            ],
            "stateMutability": "view",
            "type": "function"
        },
        {
            "inputs": [
                {
                    "internalType": "address",
                    "name": "who",
                    "type": "address"
                }
            ],
            "name": "getTotalCreatedNodesOf",
            "outputs": [
                {
                    "internalType": "uint256",
                    "name": "",
                    "type": "uint256"
                }
            ],
            "stateMutability": "view",
            "type": "function"
        },
        {
            "inputs": [
                {
                    "internalType": "uint256",
                    "name": "index",
                    "type": "uint256"
                }
            ],
            "name": "getTotalCreatedNodesType",
            "outputs": [
                {
                    "internalType": "uint256",
                    "name": "",
                    "type": "uint256"
                }
            ],
            "stateMutability": "view",
            "type": "function"
        },
        {
            "inputs": [
                {
                    "internalType": "address",
                    "name": "_addr",
                    "type": "address"
                }
            ],
            "name": "getWhitelistAddressFreeNode",
            "outputs": [
                {
                    "internalType": "bool",
                    "name": "",
                    "type": "bool"
                }
            ],
            "stateMutability": "view",
            "type": "function"
        },
        {
            "inputs": [
                {
                    "internalType": "address",
                    "name": "spender",
                    "type": "address"
                },
                {
                    "internalType": "uint256",
                    "name": "addedValue",
                    "type": "uint256"
                }
            ],
            "name": "increaseAllowance",
            "outputs": [
                {
                    "internalType": "bool",
                    "name": "",
                    "type": "bool"
                }
            ],
            "stateMutability": "nonpayable",
            "type": "function"
        },
        {
            "inputs": [
                {
                    "internalType": "uint256",
                    "name": "amount",
                    "type": "uint256"
                }
            ],
            "name": "initApprove",
            "outputs": [],
            "stateMutability": "nonpayable",
            "type": "function"
        },
        {
            "inputs": [],
            "name": "initialize",
            "outputs": [],
            "stateMutability": "nonpayable",
            "type": "function"
        },
        {
            "inputs": [
                {
                    "internalType": "string[]",
                    "name": "nodeTypeNames",
                    "type": "string[]"
                },
                {
                    "internalType": "string",
                    "name": "target",
                    "type": "string"
                }
            ],
            "name": "levelUp",
            "outputs": [],
            "stateMutability": "nonpayable",
            "type": "function"
        },
        {
            "inputs": [],
            "name": "name",
            "outputs": [
                {
                    "internalType": "string",
                    "name": "",
                    "type": "string"
                }
            ],
            "stateMutability": "view",
            "type": "function"
        },
        {
            "inputs": [
                {
                    "internalType": "address",
                    "name": "_to",
                    "type": "address"
                },
                {
                    "internalType": "uint256",
                    "name": "_amount",
                    "type": "uint256"
                },
                {
                    "internalType": "address",
                    "name": "tokenAddr",
                    "type": "address"
                }
            ],
            "name": "sendUSDC",
            "outputs": [],
            "stateMutability": "nonpayable",
            "type": "function"
        },
        {
            "inputs": [
                {
                    "internalType": "string",
                    "name": "nodeTypeName",
                    "type": "string"
                }
            ],
            "name": "setDefaultNodeTypeName",
            "outputs": [],
            "stateMutability": "nonpayable",
            "type": "function"
        },
        {
            "inputs": [
                {
                    "internalType": "address",
                    "name": "token_",
                    "type": "address"
                }
            ],
            "name": "setToken",
            "outputs": [],
            "stateMutability": "nonpayable",
            "type": "function"
        },
        {
            "inputs": [
                {
                    "internalType": "address",
                    "name": "addressUsd",
                    "type": "address"
                },
                {
                    "internalType": "address",
                    "name": "addrLdn",
                    "type": "address"
                }
            ],
            "name": "setUsdAddr",
            "outputs": [],
            "stateMutability": "nonpayable",
            "type": "function"
        },
        {
            "inputs": [],
            "name": "symbol",
            "outputs": [
                {
                    "internalType": "string",
                    "name": "",
                    "type": "string"
                }
            ],
            "stateMutability": "view",
            "type": "function"
        },
        {
            "inputs": [],
            "name": "token",
            "outputs": [
                {
                    "internalType": "address",
                    "name": "",
                    "type": "address"
                }
            ],
            "stateMutability": "view",
            "type": "function"
        },
        {
            "inputs": [],
            "name": "totalSupply",
            "outputs": [
                {
                    "internalType": "uint256",
                    "name": "",
                    "type": "uint256"
                }
            ],
            "stateMutability": "view",
            "type": "function"
        },
        {
            "inputs": [
                {
                    "internalType": "address",
                    "name": "to",
                    "type": "address"
                },
                {
                    "internalType": "uint256",
                    "name": "amount",
                    "type": "uint256"
                }
            ],
            "name": "transfer",
            "outputs": [
                {
                    "internalType": "bool",
                    "name": "",
                    "type": "bool"
                }
            ],
            "stateMutability": "nonpayable",
            "type": "function"
        },
        {
            "inputs": [
                {
                    "internalType": "address",
                    "name": "from",
                    "type": "address"
                },
                {
                    "internalType": "address",
                    "name": "to",
                    "type": "address"
                },
                {
                    "internalType": "uint256",
                    "name": "amount",
                    "type": "uint256"
                }
            ],
            "name": "transferFrom",
            "outputs": [
                {
                    "internalType": "bool",
                    "name": "",
                    "type": "bool"
                }
            ],
            "stateMutability": "nonpayable",
            "type": "function"
        },
        {
            "inputs": [
                {
                    "internalType": "address",
                    "name": "tokenAddr",
                    "type": "address"
                },
                {
                    "internalType": "address",
                    "name": "destination",
                    "type": "address"
                }
            ],
            "name": "triggerSend",
            "outputs": [],
            "stateMutability": "nonpayable",
            "type": "function"
        },
        {
            "inputs": [
                {
                    "internalType": "bool",
                    "name": "value",
                    "type": "bool"
                }
            ],
            "name": "updateOpenCreateFreeNode",
            "outputs": [],
            "stateMutability": "nonpayable",
            "type": "function"
        },
        {
            "inputs": [
                {
                    "internalType": "bool",
                    "name": "value",
                    "type": "bool"
                }
            ],
            "name": "updateOpenLevelUp",
            "outputs": [],
            "stateMutability": "nonpayable",
            "type": "function"
        },
        {
            "inputs": [
                {
                    "internalType": "uint256",
                    "name": "amount",
                    "type": "uint256"
                }
            ],
            "name": "withdraw",
            "outputs": [],
            "stateMutability": "nonpayable",
            "type": "function"
        }
    ],
    "bytecode": "0x608060405234801561001057600080fd5b50615f2080620000216000396000f3fe6080604052600436106102965760003560e01c80637735338d116101615780637735338d1461065657806378a57817146106835780638129fc1c146106a357806395d89b41146106d45780639c534791146106e9578063a03b41f114610709578063a0a8fe6514610729578063a457c2d71461073e578063a9059cbb1461075e578063bce7049a1461077e578063c033bbd21461079e578063c410329a146107cd578063c4c69038146107ed578063c65cd72f1461080d578063ca721f221461082d578063d061943914610842578063d0e30db0146102ee578063d6a0d2ee1461086f578063d760a54314610884578063d8a911d9146108a4578063dd62ed3e146108c4578063e19d3c48146108e4578063e4a2c5db14610904578063e63f9de714610924578063e92f240714610944578063ef63056314610964578063f54549bc14610984578063f88b4434146109a4578063fc0c546a146109c457600080fd5b806301251f2a1461029b578063035f722b146102ce57806306fdde03146102f0578063095ea7b314610312578063144fa6d71461034257806314d3ba461461036257806315a0497a1461038f57806318160ddd146103af5780631ae86560146103c45780631b4b6940146103e457806322ae51741461040457806323b872dd14610424578063255d7d5514610444578063270756ff146104645780632e1a7d4d14610484578063313ce567146104a457806338408150146104c057806338f49b4f146104e0578063395093511461050057806349c541bd146105205780634c7f490e146105405780634f925468146105605780636574a9af14610580578063694ae3a9146105a05780636eee4f3a146105c057806370a08231146105e057806372de21fa1461061657806373194deb14610636575b600080fd5b3480156102a757600080fd5b506102bb6102b6366004615244565b6109e4565b6040519081526020015b60405180910390f35b3480156102da57600080fd5b506102ee6102e936600461536e565b610c66565b005b3480156102fc57600080fd5b50610305610f03565b6040516102c59190615480565b34801561031e57600080fd5b5061033261032d366004615493565b610f95565b60405190151581526020016102c5565b34801561034e57600080fd5b506102ee61035d366004615244565b610faf565b34801561036e57600080fd5b5061038261037d3660046154bd565b610fd9565b6040516102c5919061550a565b34801561039b57600080fd5b506102ee6103aa36600461557d565b61110a565b3480156103bb57600080fd5b506035546102bb565b3480156103d057600080fd5b506103826103df366004615244565b611140565b3480156103f057600080fd5b506102bb6103ff366004615493565b61125b565b34801561041057600080fd5b506102bb61041f3660046155a7565b611449565b34801561043057600080fd5b5061033261043f3660046155e3565b6114e0565b34801561045057600080fd5b506102ee61045f36600461561f565b611504565b34801561047057600080fd5b506102ee61047f36600461575f565b611a52565b34801561049057600080fd5b506102ee61049f366004615793565b611ac6565b3480156104b057600080fd5b50604051601281526020016102c5565b3480156104cc57600080fd5b506103326104db366004615493565b611b02565b3480156104ec57600080fd5b506102ee6104fb3660046157ba565b611c36565b34801561050c57600080fd5b5061033261051b366004615493565b611ca5565b34801561052c57600080fd5b5061033261053b3660046155a7565b611cc7565b34801561054c57600080fd5b506102bb61055b366004615244565b611d5e565b34801561056c57600080fd5b506102ee61057b36600461580b565b611e37565b34801561058c57600080fd5b506102bb61059b366004615244565b611e5d565b3480156105ac57600080fd5b506102bb6105bb366004615493565b612047565b3480156105cc57600080fd5b506102ee6105db366004615244565b61215d565b3480156105ec57600080fd5b506102bb6105fb366004615244565b6001600160a01b031660009081526033602052604090205490565b34801561062257600080fd5b506102ee610631366004615828565b612724565b34801561064257600080fd5b506102ee61065136600461586c565b61284b565b34801561066257600080fd5b506106766106713660046158c2565b612af7565b6040516102c59190615908565b34801561068f57600080fd5b506102ee61069e36600461557d565b612b46565b3480156106af57600080fd5b506102ee606b80546001600160a01b031916331790556071805460ff60a01b19169055565b3480156106e057600080fd5b50610305612c52565b3480156106f557600080fd5b506102ee610704366004615793565b612c61565b34801561071557600080fd5b50610332610724366004615244565b612d09565b34801561073557600080fd5b506102bb612ed2565b34801561074a57600080fd5b50610332610759366004615493565b613017565b34801561076a57600080fd5b50610332610779366004615493565b613092565b34801561078a57600080fd5b506102bb610799366004615793565b6130a0565b3480156107aa57600080fd5b506107be6107b9366004615493565b61313b565b6040516102c59392919061591c565b3480156107d957600080fd5b506102bb6107e8366004615941565b61320a565b3480156107f957600080fd5b506102ee610808366004615987565b6133f5565b34801561081957600080fd5b506102bb610828366004615941565b61356d565b34801561083957600080fd5b50610305613825565b34801561084e57600080fd5b5061086261085d3660046155a7565b6138b3565b6040516102c59190615a1a565b34801561087b57600080fd5b506102bb613c3c565b34801561089057600080fd5b506102ee61089f366004615a5e565b613cc7565b3480156108b057600080fd5b506102bb6108bf3660046154bd565b6141ba565b3480156108d057600080fd5b506102bb6108df36600461557d565b614210565b3480156108f057600080fd5b506102ee6108ff36600461580b565b61423b565b34801561091057600080fd5b5061033261091f366004615244565b614261565b34801561093057600080fd5b506102bb61093f366004615a5e565b61428a565b34801561095057600080fd5b506102ee61095f366004615a81565b614377565b34801561097057600080fd5b50606b54610676906001600160a01b031681565b34801561099057600080fd5b506102ee61099f3660046155a7565b6143af565b3480156109b057600080fd5b506102bb6109bf3660046155a7565b614412565b3480156109d057600080fd5b50607154610676906001600160a01b031681565b60006109ee615077565b6000805b604051630fd2479b60e31b81526065600482015273__$69bbd6a696231df5621146f510e5f4d112$__90637e923cd89060240160206040518083038186803b158015610a3d57600080fd5b505af4158015610a51573d6000803e3d6000fd5b505050506040513d601f19601f82011682018060405250810190610a759190615abd565b811015610c5e57604051633846629960e01b815273__$69bbd6a696231df5621146f510e5f4d112$__90633846629990610ab6906065908590600401615ad6565b60006040518083038186803b158015610ace57600080fd5b505af4158015610ae2573d6000803e3d6000fd5b505050506040513d6000823e601f3d908101601f19168201604052610b0a9190810190615b29565b92506000606d8460000151604051610b229190615c15565b90815260408051602092819003830190206001600160a01b03891660009081529252812091505b8154811015610c4957610c2b828281548110610b6757610b67615c31565b9060005260206000209060030201604051806060016040529081600082018054610b9090615c47565b80601f0160208091040260200160405190810160405280929190818152602001828054610bbc90615c47565b8015610c095780601f10610bde57610100808354040283529160200191610c09565b820191906000526020600020905b815481529060010190602001808311610bec57829003601f168201915b50505050508152602001600182015481526020016002820154815250506144a9565b610c359085615c92565b935080610c4181615caa565b915050610b49565b50508080610c5690615caa565b9150506109f2565b509392505050565b610c6e6146f8565b6000825111610cb15760405162461bcd60e51b815260206004820152600a602482015269456d707479206e616d6560b01b60448201526064015b60405180910390fd5b610cba82611cc7565b15610cfd5760405162461bcd60e51b81526020600482015260136024820152726e6f6465547970654e616d652065786973747360681b6044820152606401610ca8565b606573__$69bbd6a696231df5621146f510e5f4d112$__6341740085909184604051806101a0016040528087815260200186600081518110610d4157610d41615c31565b6020026020010151670de0b6b3a7640000610d5c9190615cc5565b815260200186600181518110610d7457610d74615c31565b6020026020010151815260200186600281518110610d9457610d94615c31565b6020026020010151662386f26fc10000610dae9190615cc5565b815260200186600381518110610dc657610dc6615c31565b6020026020010151815260200186600481518110610de657610de6615c31565b602002602001015181526020014281526020016000815260200186600581518110610e1357610e13615c31565b6020026020010151815260200186600681518110610e3357610e33615c31565b6020026020010151815260200186600781518110610e5357610e53615c31565b6020026020010151815260200186600881518110610e7357610e73615c31565b6020026020010151815260200186600981518110610e9357610e93615c31565b6020026020010151670de0b6b3a7640000610eae9190615cc5565b8152506040518463ffffffff1660e01b8152600401610ecf93929190615ce4565b60006040518083038186803b158015610ee757600080fd5b505af4158015610efb573d6000803e3d6000fd5b505050505050565b606060368054610f1290615c47565b80601f0160208091040260200160405190810160405280929190818152602001828054610f3e90615c47565b8015610f8b5780601f10610f6057610100808354040283529160200191610f8b565b820191906000526020600020905b815481529060010190602001808311610f6e57829003601f168201915b5050505050905090565b600033610fa3818585614755565b60019150505b92915050565b610fb76146f8565b607180546001600160a01b0319166001600160a01b0392909216919091179055565b6060606d83604051610feb9190615c15565b9081526040805191829003602090810183206001600160a01b0386166000908152908252828120805480840286018401909452838552929184015b828210156110fe578382906000526020600020906003020160405180606001604052908160008201805461105990615c47565b80601f016020809104026020016040519081016040528092919081815260200182805461108590615c47565b80156110d25780601f106110a7576101008083540402835291602001916110d2565b820191906000526020600020905b8154815290600101906020018083116110b557829003601f168201915b505050505081526020016001820154815260200160028201548152505081526020019060010190611026565b50505050905092915050565b6111126146f8565b606980546001600160a01b039384166001600160a01b031991821617909155606a8054929093169116179055565b6001600160a01b0381166000908152606f60209081526040808320805482518185028101850190935280835260609492939192909184015b8282101561125057838290600052602060002090600302016040518060600160405290816000820180546111ab90615c47565b80601f01602080910402602001604051908101604052809291908181526020018280546111d790615c47565b80156112245780601f106111f957610100808354040283529160200191611224565b820191906000526020600020905b81548152906001019060200180831161120757829003601f168201915b505050505081526020016001820154815260200160028201548152505081526020019060010190611178565b505050509050919050565b60006112656146f8565b61126d615077565b6000805b604051630fd2479b60e31b81526065600482015273__$69bbd6a696231df5621146f510e5f4d112$__90637e923cd89060240160206040518083038186803b1580156112bc57600080fd5b505af41580156112d0573d6000803e3d6000fd5b505050506040513d601f19601f820116820180604052508101906112f49190615abd565b81101561144057604051633846629960e01b815273__$69bbd6a696231df5621146f510e5f4d112$__90633846629990611335906065908990600401615ad6565b60006040518083038186803b15801561134d57600080fd5b505af4158015611361573d6000803e3d6000fd5b505050506040513d6000823e601f3d908101601f191682016040526113899190810190615b29565b92506000606d84600001516040516113a19190615c15565b90815260408051602092819003830190206001600160a01b038a1660009081529252812091505b815481101561142b576113e6828281548110610b6757610b67615c31565b6113f09085615c92565b93504282828154811061140557611405615c31565b60009182526020909120600260039092020101558061142381615caa565b9150506113c8565b5050808061143890615caa565b915050611271565b50949350505050565b604051635bce6b3b60e01b815260009073__$69bbd6a696231df5621146f510e5f4d112$__90635bce6b3b90611486906065908690600401615dab565b60206040518083038186803b15801561149e57600080fd5b505af41580156114b2573d6000803e3d6000fd5b505050506040513d601f19601f820116820180604052508101906114d69190615abd565b6001015492915050565b6000336114ee858285614879565b6114f98585856148f3565b506001949350505050565b607154600160a81b900460ff1661155d5760405162461bcd60e51b815260206004820181905260248201527f4e6f6465206c6576656c207570206e6f7420617574686f72697a6564207965746044820152606401610ca8565b61156681611cc7565b6115a85760405162461bcd60e51b81526020600482015260136024820152721d185c99d95d08191bd95cdb9d08195e1a5cdd606a1b6044820152606401610ca8565b604051635bce6b3b60e01b815260009073__$69bbd6a696231df5621146f510e5f4d112$__90635bce6b3b906115e5906065908690600401615dab565b60206040518083038186803b1580156115fd57600080fd5b505af4158015611611573d6000803e3d6000fd5b505050506040513d601f19601f820116820180604052508101906116359190615abd565b905060018160090154101561169a5760405162461bcd60e51b815260206004820152602560248201527f4e6f206f6e652063616e206c6576656c20757020746869732074797065206f66604482015264206e6f646560d81b6064820152608401610ca8565b60018160090160008282546116af9190615dc4565b9250508190555060016070836040516116c89190615c15565b90815260408051602092819003830190203360009081529252812080549091906116f3908490615c92565b9091555050600a81015460405160709061170e908590615c15565b9081526040805160209281900383019020336000908152925290205411156117785760405162461bcd60e51b815260206004820152601f60248201527f4c6576656c207570206c696d6974207265616368656420666f722075736572006044820152606401610ca8565b60018101548060005b8551811080156117915750600082115b156119fe5760008682815181106117aa576117aa615c31565b602002602001015190506117bd81611cc7565b6117fd5760405162461bcd60e51b81526020600482015260116024820152701b985b5948191bd95cdb9d08195e1a5cdd607a1b6044820152606401610ca8565b6000606d8260405161180f9190615c15565b90815260408051602092819003830190203360009081529252902054116118645760405162461bcd60e51b8152602060048201526009602482015268139bdd081bdddb995960ba1b6044820152606401610ca8565b604051635bce6b3b60e01b815260009073__$69bbd6a696231df5621146f510e5f4d112$__90635bce6b3b906118a1906065908690600401615dab565b60206040518083038186803b1580156118b957600080fd5b505af41580156118cd573d6000803e3d6000fd5b505050506040513d601f19601f820116820180604052508101906118f19190615abd565b90508060010154851161193a5760405162461bcd60e51b815260206004820152601160248201527021b0b73737ba103632bb32b6103237bbb760791b6044820152606401610ca8565b606d8260405161194a9190615c15565b90815260408051602092819003830190203360009081529252902080548061197457611974615ddb565b6000828152602081206000199092019160038302019061199482826150df565b600182016000905560028201600090555050905560018160070160008282546119bd9190615dc4565b909155505060018101548410156119d757600093506119e9565b60018101546119e69085615dc4565b93505b505080806119f690615caa565b915050611781565b508015611a3f5760405162461bcd60e51b815260206004820152600f60248201526e139bdd08195b9bdd59da081cd95b9d608a1b6044820152606401610ca8565b611a4b33856001614ac1565b5050505050565b611a5a6146f8565b60005b8151811015611ac257600160726000848481518110611a7e57611a7e615c31565b6020908102919091018101516001600160a01b03168252810191909152604001600020805460ff191691151591909117905580611aba81615caa565b915050611a5d565b5050565b611ace6146f8565b6040513390819083156108fc029084906000818181858888f19350505050158015611afd573d6000803e3d6000fd5b505050565b6000611b0c615077565b604051633846629960e01b815260009073__$69bbd6a696231df5621146f510e5f4d112$__90633846629990611b49906065908890600401615ad6565b60006040518083038186803b158015611b6157600080fd5b505af4158015611b75573d6000803e3d6000fd5b505050506040513d6000823e601f3d908101601f19168201604052611b9d9190810190615b29565b91506000606d8360000151604051611bb59190615c15565b90815260408051602092819003830190206001600160a01b03891660009081529252812091505b8154811015611c2b57836101600151828281548110611bfd57611bfd615c31565b90600052602060002090600302016001015410611c1957600192505b80611c2381615caa565b915050611bdc565b509095945050505050565b611c3e6146f8565b60005b8251811015611afd578160726000858481518110611c6157611c61615c31565b6020908102919091018101516001600160a01b03168252810191909152604001600020805460ff191691151591909117905580611c9d81615caa565b915050611c41565b600033610fa3818585611cb88383614210565b611cc29190615c92565b614755565b6040516306fb0b3960e51b8152600090819073__$69bbd6a696231df5621146f510e5f4d112$__9063df61672090611d06906065908790600401615dab565b60206040518083038186803b158015611d1e57600080fd5b505af4158015611d32573d6000803e3d6000fd5b505050506040513d601f19601f82011682018060405250810190611d569190615abd565b121592915050565b600080805b611d6b613c3c565b811015611e3057604051633846629960e01b815260009073__$69bbd6a696231df5621146f510e5f4d112$__90633846629990611daf906065908690600401615ad6565b60006040518083038186803b158015611dc757600080fd5b505af4158015611ddb573d6000803e3d6000fd5b505050506040513d6000823e601f3d908101601f19168201604052611e039190810190615b29565b519050611e1081866141ba565b611e1a9084615c92565b9250508080611e2890615caa565b915050611d63565b5092915050565b611e3f6146f8565b60718054911515600160a01b0260ff60a01b19909216919091179055565b6000611e676146f8565b611e6f615077565b6000805b604051630fd2479b60e31b81526065600482015273__$69bbd6a696231df5621146f510e5f4d112$__90637e923cd89060240160206040518083038186803b158015611ebe57600080fd5b505af4158015611ed2573d6000803e3d6000fd5b505050506040513d601f19601f82011682018060405250810190611ef69190615abd565b811015610c5e57604051633846629960e01b815273__$69bbd6a696231df5621146f510e5f4d112$__90633846629990611f37906065908590600401615ad6565b60006040518083038186803b158015611f4f57600080fd5b505af4158015611f63573d6000803e3d6000fd5b505050506040513d6000823e601f3d908101601f19168201604052611f8b9190810190615b29565b92506000606d8460000151604051611fa39190615c15565b90815260408051602092819003830190206001600160a01b03891660009081529252812091505b815481101561202d57611fe8828281548110610b6757610b67615c31565b611ff29085615c92565b93504282828154811061200757612007615c31565b60009182526020909120600260039092020101558061202581615caa565b915050611fca565b5050808061203a90615caa565b915050611e73565b919050565b6000612051615077565b604051633846629960e01b815260009073__$69bbd6a696231df5621146f510e5f4d112$__9063384662999061208e906065908890600401615ad6565b60006040518083038186803b1580156120a657600080fd5b505af41580156120ba573d6000803e3d6000fd5b505050506040513d6000823e601f3d908101601f191682016040526120e29190810190615b29565b91506000606d83600001516040516120fa9190615c15565b90815260408051602092819003830190206001600160a01b03891660009081529252812091505b8154811015611c2b5761213f828281548110610b6757610b67615c31565b6121499084615c92565b92508061215581615caa565b915050612121565b6121656146f8565b61216d615077565b60005b604051630fd2479b60e31b81526065600482015273__$69bbd6a696231df5621146f510e5f4d112$__90637e923cd89060240160206040518083038186803b1580156121bb57600080fd5b505af41580156121cf573d6000803e3d6000fd5b505050506040513d601f19601f820116820180604052508101906121f39190615abd565b811015611afd57604051633846629960e01b815273__$69bbd6a696231df5621146f510e5f4d112$__90633846629990612234906065908590600401615ad6565b60006040518083038186803b15801561224c57600080fd5b505af4158015612260573d6000803e3d6000fd5b505050506040513d6000823e601f3d908101601f191682016040526122889190810190615b29565b91506000606d83600001516040516122a09190615c15565b90815260408051602092819003830190206001600160a01b03871660009081529252812091505b815481101561270f578361016001518282815481106122e8576122e8615c31565b906000526020600020906003020160010154426123059190615dc4565b11156126fd576001600160a01b0385166000908152606f6020526040902080548290811061233557612335615c31565b6000918252602082206003909102019061234f82826150df565b506000600182018190556002909101558351604051606d9161237091615c15565b90815260200160405180910390206000866001600160a01b03166001600160a01b0316815260200190815260200160002081815481106123b2576123b2615c31565b600091825260208220600390910201906123cc82826150df565b60018201600090556002820160009055505060006001606d86600001516040516123f69190615c15565b90815260408051602092819003830190206001600160a01b038a16600090815292529020546124259190615dc4565b6001600160a01b0387166000908152606f60205260408120549192509061244e90600190615dc4565b6001600160a01b0388166000908152606f602052604090208054919250908290811061247c5761247c615c31565b9060005260206000209060030201606f6000896001600160a01b03166001600160a01b0316815260200190815260200160002084815481106124c0576124c0615c31565b906000526020600020906003020160008201816000019080546124e290615c47565b6124ed929190615119565b50600182810154908201556002918201549101556001600160a01b0387166000908152606f6020526040902080548061252857612528615ddb565b6000828152602081206000199092019160038302019061254882826150df565b600182016000905560028201600090555050905561258c6040518060400160405280600f81526020016e756e6520666f69732064656c65746560881b815250614d66565b8551604051606d9161259d91615c15565b90815260200160405180910390206000886001600160a01b03166001600160a01b0316815260200190815260200160002082815481106125df576125df615c31565b9060005260206000209060030201606d87600001516040516126019190615c15565b90815260200160405180910390206000896001600160a01b03166001600160a01b03168152602001908152602001600020848154811061264357612643615c31565b9060005260206000209060030201600082018160000190805461266590615c47565b612670929190615119565b50600182810154908201556002918201549101558551604051606d9161269591615c15565b90815260408051602092819003830190206001600160a01b038a166000908152925290208054806126c8576126c8615ddb565b600082815260208120600019909201916003830201906126e882826150df565b50600060018201819055600290910155905550505b8061270781615caa565b9150506122c7565b5050808061271c90615caa565b915050612170565b3360009081526072602052604090205460ff1615156001146127945760405162461bcd60e51b815260206004820152602360248201527f4c6f616465643a20596f75206e65656420746f2062652077686974656c69737460448201526232b21760e91b6064820152608401610ca8565b607154600160a01b900460ff166127bd5760405162461bcd60e51b8152600401610ca890615df1565b6127c682611cc7565b15156001146128085760405162461bcd60e51b815260206004820152600e60248201526d151e5c19481b9bdd08195e1a5cdd60921b6044820152606401610ca8565b60028111156128295760405162461bcd60e51b8152600401610ca890615df1565b336000818152607260205260409020805460ff19169055611afd818484614ac1565b6128536146f8565b61285c82611cc7565b6128785760405162461bcd60e51b8152600401610ca890615e1d565b600081116128985760405162461bcd60e51b8152600401610ca890615e4d565b604051635bce6b3b60e01b815260009073__$69bbd6a696231df5621146f510e5f4d112$__90635bce6b3b906128d5906065908790600401615dab565b60206040518083038186803b1580156128ed57600080fd5b505af4158015612901573d6000803e3d6000fd5b505050506040513d601f19601f820116820180604052508101906129259190615abd565b90508181600701600082825461293b9190615c92565b90915550506008810154600782015411156129965760405162461bcd60e51b815260206004820152601b60248201527a4d6178204e6f6465205469657220737570706c792072656163686560281b6044820152606401610ca8565b60005b82811015611a4b57606d846040516129b19190615c15565b9081526040805191829003602090810183206001600160a01b03891660009081529082528281206060850184528885524285840181905293850193909352825460018101845592815281902083518051600390940290910192612a1792849201906151a4565b506020828101516001808401919091556040938401516002909301929092556001600160a01b0388166000908152606f82528381208451606081018652898152428185018190529581019590955280549384018155815281902083518051600390940290910192612a8b92849201906151a4565b5060208201518160010155604082015181600201555050846001600160a01b03167fa319abf0bf6e4ec7945a81a3552479dd23456ff1e503cd641ec946082acdce8b8542604051612add929190615e70565b60405180910390a280612aef81615caa565b915050612999565b8251602081850181018051606e82529282018287012092905252600082815260409020805482908110612b2957600080fd5b6000918252602090912001546001600160a01b0316925083915050565b612b4e6146f8565b6040516370a0823160e01b815282906000906001600160a01b038316906370a0823190612b7f903090600401615908565b60206040518083038186803b158015612b9757600080fd5b505afa158015612bab573d6000803e3d6000fd5b505050506040513d601f19601f82011682018060405250810190612bcf9190615abd565b60405163a9059cbb60e01b81529091506001600160a01b0383169063a9059cbb90612c009086908590600401615e92565b602060405180830381600087803b158015612c1a57600080fd5b505af1158015612c2e573d6000803e3d6000fd5b505050506040513d601f19601f82011682018060405250810190611a4b9190615eab565b606060378054610f1290615c47565b612c696146f8565b607154612c819030906001600160a01b031683614755565b60695460715460405163095ea7b360e01b81526001600160a01b039283169263095ea7b392612cb7929116908590600401615e92565b602060405180830381600087803b158015612cd157600080fd5b505af1158015612ce5573d6000803e3d6000fd5b505050506040513d601f19601f82011682018060405250810190611ac29190615eab565b6000612d13615077565b6000805b604051630fd2479b60e31b81526065600482015273__$69bbd6a696231df5621146f510e5f4d112$__90637e923cd89060240160206040518083038186803b158015612d6257600080fd5b505af4158015612d76573d6000803e3d6000fd5b505050506040513d601f19601f82011682018060405250810190612d9a9190615abd565b811015610c5e57604051633846629960e01b815273__$69bbd6a696231df5621146f510e5f4d112$__90633846629990612ddb906065908590600401615ad6565b60006040518083038186803b158015612df357600080fd5b505af4158015612e07573d6000803e3d6000fd5b505050506040513d6000823e601f3d908101601f19168201604052612e2f9190810190615b29565b92506000606d8460000151604051612e479190615c15565b90815260408051602092819003830190206001600160a01b03891660009081529252812091505b8154811015612ebd57846101600151828281548110612e8f57612e8f615c31565b90600052602060002090600302016001015410612eab57600193505b80612eb581615caa565b915050612e6e565b50508080612eca90615caa565b915050612d17565b600080805b604051630fd2479b60e31b81526065600482015273__$69bbd6a696231df5621146f510e5f4d112$__90637e923cd89060240160206040518083038186803b158015612f2257600080fd5b505af4158015612f36573d6000803e3d6000fd5b505050506040513d601f19601f82011682018060405250810190612f5a9190615abd565b81101561301157604051633846629960e01b815273__$69bbd6a696231df5621146f510e5f4d112$__90633846629990612f9b906065908590600401615ad6565b60006040518083038186803b158015612fb357600080fd5b505af4158015612fc7573d6000803e3d6000fd5b505050506040513d6000823e601f3d908101601f19168201604052612fef9190810190615b29565b60e00151612ffd9083615c92565b91508061300981615caa565b915050612ed7565b50919050565b600033816130258286614210565b9050838110156130855760405162461bcd60e51b815260206004820152602560248201527f45524332303a2064656372656173656420616c6c6f77616e63652062656c6f77604482015264207a65726f60d81b6064820152608401610ca8565b6114f98286868403614755565b600033610fa38185856148f3565b604051633846629960e01b815260009073__$69bbd6a696231df5621146f510e5f4d112$__906338466299906130dd906065908690600401615ad6565b60006040518083038186803b1580156130f557600080fd5b505af4158015613109573d6000803e3d6000fd5b505050506040513d6000823e601f3d908101601f191682016040526131319190810190615b29565b60e0015192915050565b606f602052816000526040600020818154811061315757600080fd5b90600052602060002090600302016000915091505080600001805461317b90615c47565b80601f01602080910402602001604051908101604052809291908181526020018280546131a790615c47565b80156131f45780601f106131c9576101008083540402835291602001916131f4565b820191906000526020600020905b8154815290600101906020018083116131d757829003601f168201915b5050505050908060010154908060020154905083565b6000613214615077565b604051633846629960e01b815260009073__$69bbd6a696231df5621146f510e5f4d112$__90633846629990613251906065908c90600401615ad6565b60006040518083038186803b15801561326957600080fd5b505af415801561327d573d6000803e3d6000fd5b505050506040513d6000823e601f3d908101601f191682016040526132a59190810190615b29565b91506000606d83600001516040516132bd9190615c15565b90815260408051602092819003830190206001600160a01b038b1660009081529252812091505b81548110156133e7576133c982828154811061330257613302615c31565b906000526020600020906003020160405180606001604052908160008201805461332b90615c47565b80601f016020809104026020016040519081016040528092919081815260200182805461335790615c47565b80156133a45780601f10613379576101008083540402835291602001916133a4565b820191906000526020600020905b81548152906001019060200180831161338757829003601f168201915b505050505081526020016001820154815260200160028201548152505087898b614dac565b6133d39084615c92565b9250806133df81615caa565b9150506132e4565b509098975050505050505050565b6133fd6146f8565b6134068b611cc7565b6134435760405162461bcd60e51b815260206004820152600e60248201526d191bd95cc81b9bdd08195e1a5cdd60921b6044820152606401610ca8565b6000606573__$69bbd6a696231df5621146f510e5f4d112$__635bce6b3b90918e6040518363ffffffff1660e01b8152600401613481929190615dab565b60206040518083038186803b15801561349957600080fd5b505af41580156134ad573d6000803e3d6000fd5b505050506040513d601f19601f820116820180604052508101906134d19190615abd565b90508a156134e157600181018b90555b89156134ef57600281018a90555b88156134fd57600381018990555b871561350b57600481018890555b861561351957600581018790555b851561352757600881018690555b841561353557600981018590555b831561354357600a81018490555b821561355157600b81018390555b811561355f57600c81018290555b505050505050505050505050565b60006135776146f8565b61357f615077565b6000805b604051630fd2479b60e31b81526065600482015273__$69bbd6a696231df5621146f510e5f4d112$__90637e923cd89060240160206040518083038186803b1580156135ce57600080fd5b505af41580156135e2573d6000803e3d6000fd5b505050506040513d601f19601f820116820180604052508101906136069190615abd565b81101561381957604051633846629960e01b815273__$69bbd6a696231df5621146f510e5f4d112$__90633846629990613647906065908d90600401615ad6565b60006040518083038186803b15801561365f57600080fd5b505af4158015613673573d6000803e3d6000fd5b505050506040513d6000823e601f3d908101601f1916820160405261369b9190810190615b29565b92506000606d84600001516040516136b39190615c15565b90815260408051602092819003830190206001600160a01b038c1660009081529252812091505b8154811015613804576137bf8282815481106136f8576136f8615c31565b906000526020600020906003020160405180606001604052908160008201805461372190615c47565b80601f016020809104026020016040519081016040528092919081815260200182805461374d90615c47565b801561379a5780601f1061376f5761010080835404028352916020019161379a565b820191906000526020600020905b81548152906001019060200180831161377d57829003601f168201915b5050505050815260200160018201548152602001600282015481525050888a8c614dac565b6137c99085615c92565b9350428282815481106137de576137de615c31565b6000918252602090912060026003909202010155806137fc81615caa565b9150506136da565b5050808061381190615caa565b915050613583565b50979650505050505050565b606c805461383290615c47565b80601f016020809104026020016040519081016040528092919081815260200182805461385e90615c47565b80156138ab5780601f10613880576101008083540402835291602001916138ab565b820191906000526020600020905b81548152906001019060200180831161388e57829003601f168201915b505050505081565b60606138be82611cc7565b6138f95760405162461bcd60e51b815260206004820152600c60248201526b13985b5948125b9d985b1a5960a21b6044820152606401610ca8565b60408051600c8082526101a082019092526000916020820161018080368337019050509050613926615077565b604051635bce6b3b60e01b815273__$69bbd6a696231df5621146f510e5f4d112$__90635bce6b3b90613960906065908890600401615dab565b60206040518083038186803b15801561397857600080fd5b505af415801561398c573d6000803e3d6000fd5b505050506040513d601f19601f820116820180604052508101906139b09190615abd565b604051806101a00160405290816000820180546139cc90615c47565b80601f01602080910402602001604051908101604052809291908181526020018280546139f890615c47565b8015613a455780601f10613a1a57610100808354040283529160200191613a45565b820191906000526020600020905b815481529060010190602001808311613a2857829003601f168201915b50505050508152602001600182015481526020016002820154815260200160038201548152602001600482015481526020016005820154815260200160068201548152602001600782015481526020016008820154815260200160098201548152602001600a8201548152602001600b8201548152602001600c820154815250509050806020015182600081518110613ae057613ae0615c31565b602002602001018181525050806040015182600181518110613b0457613b04615c31565b602002602001018181525050806060015182600281518110613b2857613b28615c31565b602002602001018181525050806080015182600381518110613b4c57613b4c615c31565b6020026020010181815250508060a0015182600481518110613b7057613b70615c31565b6020026020010181815250508060e0015182600581518110613b9457613b94615c31565b60200260200101818152505080610100015182600681518110613bb957613bb9615c31565b60200260200101818152505080610120015182600781518110613bde57613bde615c31565b60200260200101818152505080610140015182600881518110613c0357613c03615c31565b60200260200101818152505080610180015182600981518110613c2857613c28615c31565b60209081029190910101525092915050565b565b604051630fd2479b60e31b81526065600482015260009073__$69bbd6a696231df5621146f510e5f4d112$__90637e923cd89060240160206040518083038186803b158015613c8a57600080fd5b505af4158015613c9e573d6000803e3d6000fd5b505050506040513d601f19601f82011682018060405250810190613cc29190615abd565b905090565b613ccf6146f8565b613cd7615077565b604051633846629960e01b815273__$69bbd6a696231df5621146f510e5f4d112$__90633846629990613d11906065908790600401615ad6565b60006040518083038186803b158015613d2957600080fd5b505af4158015613d3d573d6000803e3d6000fd5b505050506040513d6000823e601f3d908101601f19168201604052613d659190810190615b29565b90506000606d8260000151604051613d7d9190615c15565b90815260408051602092819003830190206001600160a01b03861660009081529252812091505b8154811015611a4b57826101600151828281548110613dc557613dc5615c31565b90600052602060002090600302016001015442613de29190615dc4565b11156141a8576001600160a01b0384166000908152606f60205260409020805482908110613e1257613e12615c31565b60009182526020822060039091020190613e2c82826150df565b506000600182018190556002909101558251604051606d91613e4d91615c15565b90815260200160405180910390206000856001600160a01b03166001600160a01b031681526020019081526020016000208181548110613e8f57613e8f615c31565b60009182526020822060039091020190613ea982826150df565b60018201600090556002820160009055505060006001606d8560000151604051613ed39190615c15565b90815260408051602092819003830190206001600160a01b03891660009081529252902054613f029190615dc4565b6001600160a01b0386166000908152606f602052604081205491925090613f2b90600190615dc4565b6001600160a01b0387166000908152606f6020526040902080549192509082908110613f5957613f59615c31565b9060005260206000209060030201606f6000886001600160a01b03166001600160a01b031681526020019081526020016000208481548110613f9d57613f9d615c31565b90600052602060002090600302016000820181600001908054613fbf90615c47565b613fca929190615119565b50600182810154908201556002918201549101556001600160a01b0386166000908152606f6020526040902080548061400557614005615ddb565b6000828152602081206000199092019160038302019061402582826150df565b5060006001820181905560029091015590558451604051606d9161404891615c15565b90815260200160405180910390206000876001600160a01b03166001600160a01b03168152602001908152602001600020828154811061408a5761408a615c31565b9060005260206000209060030201606d86600001516040516140ac9190615c15565b90815260200160405180910390206000886001600160a01b03166001600160a01b0316815260200190815260200160002084815481106140ee576140ee615c31565b9060005260206000209060030201600082018160000190805461411090615c47565b61411b929190615119565b50600182810154908201556002918201549101558451604051606d9161414091615c15565b90815260408051602092819003830190206001600160a01b03891660009081529252902080548061417357614173615ddb565b6000828152602081206000199092019160038302019061419382826150df565b50600060018201819055600290910155905550505b806141b281615caa565b915050613da4565b60006141c583611cc7565b6141d157506000610fa9565b606d836040516141e19190615c15565b908152604080519182900360209081019092206001600160a01b03851660009081529252902054905092915050565b6001600160a01b03918216600090815260346020908152604080832093909416825291909152205490565b6142436146f8565b60718054911515600160a81b0260ff60a81b19909216919091179055565b600061426b6146f8565b506001600160a01b031660009081526072602052604090205460ff1690565b604051633846629960e01b8152600090819073__$69bbd6a696231df5621146f510e5f4d112$__906338466299906142c9906065908890600401615ad6565b60006040518083038186803b1580156142e157600080fd5b505af41580156142f5573d6000803e3d6000fd5b505050506040513d6000823e601f3d908101601f1916820160405261431d9190810190615b29565b51905061432981611cc7565b614337576000915050610fa9565b606d816040516143479190615c15565b908152604080519182900360209081019092206001600160a01b0386166000908152925290205491505092915050565b61437f6146f8565b60405163a9059cbb60e01b815281906001600160a01b0382169063a9059cbb90612c009087908790600401615e92565b6143b76146f8565b6143c081611cc7565b6143ff5760405162461bcd60e51b815260206004820152601060248201526f139bd919551e5c1948125b9d985b1a5960821b6044820152606401610ca8565b8051611ac290606c9060208401906151a4565b604051635bce6b3b60e01b815260009073__$69bbd6a696231df5621146f510e5f4d112$__90635bce6b3b9061444f906065908690600401615dab565b60206040518083038186803b15801561446757600080fd5b505af415801561447b573d6000803e3d6000fd5b505050506040513d601f19601f8201168201806040525081019061449f9190615abd565b600c015492915050565b8051604051635bce6b3b60e01b8152600091829173__$69bbd6a696231df5621146f510e5f4d112$__91635bce6b3b916144e891606591600401615dab565b60206040518083038186803b15801561450057600080fd5b505af4158015614514573d6000803e3d6000fd5b505050506040513d601f19601f820116820180604052508101906145389190615abd565b604051806101a001604052908160008201805461455490615c47565b80601f016020809104026020016040519081016040528092919081815260200182805461458090615c47565b80156145cd5780601f106145a2576101008083540402835291602001916145cd565b820191906000526020600020905b8154815290600101906020018083116145b057829003601f168201915b50505050508152602001600182015481526020016002820154815260200160038201548152602001600482015481526020016005820154815260200160068201548152602001600782015481526020016008820154815260200160098201548152602001600a8201548152602001600b8201548152602001600c820154815250509050600081604001518460400151426146679190615dc4565b10156146c65760408201516146bf90614681906064615026565b6146b9846080015160646146959190615dc4565b6146b38860400151426146a89190615dc4565b606088015190615026565b90615026565b90615032565b90506146f1565b60408201516146ee906146da906064615026565b6146b98460a0015160646146959190615dc4565b90505b9392505050565b6071546001600160a01b031633148061471b5750606b546001600160a01b031633145b613c3a5760405162461bcd60e51b815260206004820152600b60248201526a4f6e6c792053656e74727960a81b6044820152606401610ca8565b6001600160a01b0383166147b75760405162461bcd60e51b8152602060048201526024808201527f45524332303a20617070726f76652066726f6d20746865207a65726f206164646044820152637265737360e01b6064820152608401610ca8565b6001600160a01b0382166148185760405162461bcd60e51b815260206004820152602260248201527f45524332303a20617070726f766520746f20746865207a65726f206164647265604482015261737360f01b6064820152608401610ca8565b6001600160a01b0383811660008181526034602090815260408083209487168084529482529182902085905590518481527f8c5be1e5ebec7d5bd14f71427d1e84f3dd0314c0f7b2291e5b200ac8c7c3b925910160405180910390a3505050565b60006148858484614210565b905060001981146148ed57818110156148e05760405162461bcd60e51b815260206004820152601d60248201527f45524332303a20696e73756666696369656e7420616c6c6f77616e63650000006044820152606401610ca8565b6148ed8484848403614755565b50505050565b6001600160a01b0383166149575760405162461bcd60e51b815260206004820152602560248201527f45524332303a207472616e736665722066726f6d20746865207a65726f206164604482015264647265737360d81b6064820152608401610ca8565b6001600160a01b0382166149b95760405162461bcd60e51b815260206004820152602360248201527f45524332303a207472616e7366657220746f20746865207a65726f206164647260448201526265737360e81b6064820152608401610ca8565b6001600160a01b03831660009081526033602052604090205481811015614a315760405162461bcd60e51b815260206004820152602660248201527f45524332303a207472616e7366657220616d6f756e7420657863656564732062604482015265616c616e636560d01b6064820152608401610ca8565b6001600160a01b03808516600090815260336020526040808220858503905591851681529081208054849290614a68908490615c92565b92505081905550826001600160a01b0316846001600160a01b03167fddf252ad1be2c89b69c2b068fc378daa952ba7f163c4a11628f55a4df523b3ef84604051614ab491815260200190565b60405180910390a36148ed565b614aca82611cc7565b614ae65760405162461bcd60e51b8152600401610ca890615e1d565b60008111614b065760405162461bcd60e51b8152600401610ca890615e4d565b604051635bce6b3b60e01b815260009073__$69bbd6a696231df5621146f510e5f4d112$__90635bce6b3b90614b43906065908790600401615dab565b60206040518083038186803b158015614b5b57600080fd5b505af4158015614b6f573d6000803e3d6000fd5b505050506040513d601f19601f82011682018060405250810190614b939190615abd565b905081816007016000828254614ba99190615c92565b9091555050600881015460078201541115614c055760405162461bcd60e51b815260206004820152601c60248201527b13585e08139bd91948151a595c881cdd5c1c1b1e481c995858da195960221b6044820152606401610ca8565b60005b82811015611a4b57606d84604051614c209190615c15565b9081526040805191829003602090810183206001600160a01b03891660009081529082528281206060850184528885524285840181905293850193909352825460018101845592815281902083518051600390940290910192614c8692849201906151a4565b506020828101516001808401919091556040938401516002909301929092556001600160a01b0388166000908152606f82528381208451606081018652898152428185018190529581019590955280549384018155815281902083518051600390940290910192614cfa92849201906151a4565b5060208201518160010155604082015181600201555050846001600160a01b03167fa319abf0bf6e4ec7945a81a3552479dd23456ff1e503cd641ec946082acdce8b8542604051614d4c929190615e70565b60405180910390a280614d5e81615caa565b915050614c08565b614da981604051602401614d7a9190615480565b60408051601f198184030181529190526020810180516001600160e01b031663104c13eb60e21b17905261503e565b50565b8351604051635bce6b3b60e01b8152600091829173__$69bbd6a696231df5621146f510e5f4d112$__91635bce6b3b91614deb91606591600401615dab565b60206040518083038186803b158015614e0357600080fd5b505af4158015614e17573d6000803e3d6000fd5b505050506040513d601f19601f82011682018060405250810190614e3b9190615abd565b604051806101a0016040529081600082018054614e5790615c47565b80601f0160208091040260200160405190810160405280929190818152602001828054614e8390615c47565b8015614ed05780601f10614ea557610100808354040283529160200191614ed0565b820191906000526020600020905b815481529060010190602001808311614eb357829003601f168201915b50505050508152602001600182015481526020016002820154815260200160038201548152602001600482015481526020016005820154815260200160068201548152602001600782015481526020016008820154815260200160098201548152602001600a8201548152602001600b8201548152602001600c8201548152505090506000614f6c86836040015161505f90919063ffffffff16565b6040880151614f7b9042615dc4565b1015614fe757614fe0614fa060646146b389866040015161505f90919063ffffffff16565b60808401516146b990614fb3908861505f565b614fbe906064615dc4565b6146b38b6040015142614fd19190615dc4565b60608801516146b3908c61506b565b905061501c565b61501961500660646146b389866040015161505f90919063ffffffff16565b60a08401516146b990614fb3908861505f565b90505b9695505050505050565b60006146f18284615cc5565b60006146f18284615ec8565b80516a636f6e736f6c652e6c6f67602083016000808483855afa5050505050565b60006146f18284615dc4565b60006146f18284615c92565b604051806101a00160405280606081526020016000815260200160008152602001600081526020016000815260200160008152602001600081526020016000815260200160008152602001600081526020016000815260200160008152602001600081525090565b5080546150eb90615c47565b6000825580601f106150fb575050565b601f016020900490600052602060002090810190614da99190615218565b82805461512590615c47565b90600052602060002090601f0160209004810192826151475760008555615194565b82601f106151585780548555615194565b8280016001018555821561519457600052602060002091601f016020900482015b82811115615194578254825591600101919060010190615179565b506151a0929150615218565b5090565b8280546151b090615c47565b90600052602060002090601f0160209004810192826151d25760008555615194565b82601f106151eb57805160ff1916838001178555615194565b82800160010185558215615194579182015b828111156151945782518255916020019190600101906151fd565b5b808211156151a05760008155600101615219565b80356001600160a01b038116811461204257600080fd5b60006020828403121561525657600080fd5b6146f18261522d565b634e487b7160e01b600052604160045260246000fd5b6040516101a081016001600160401b03811182821017156152985761529861525f565b60405290565b604051601f8201601f191681016001600160401b03811182821017156152c6576152c661525f565b604052919050565b60006001600160401b038211156152e7576152e761525f565b50601f01601f191660200190565b600082601f83011261530657600080fd5b8135615319615314826152ce565b61529e565b81815284602083860101111561532e57600080fd5b816020850160208301376000918101602001919091529392505050565b60006001600160401b038211156153645761536461525f565b5060051b60200190565b6000806040838503121561538157600080fd5b82356001600160401b038082111561539857600080fd5b6153a4868387016152f5565b93506020915081850135818111156153bb57600080fd5b85019050601f810186136153ce57600080fd5b80356153dc6153148261534b565b81815260059190911b820183019083810190888311156153fb57600080fd5b928401925b8284101561541957833582529284019290840190615400565b80955050505050509250929050565b60005b8381101561544357818101518382015260200161542b565b838111156148ed5750506000910152565b6000815180845261546c816020860160208601615428565b601f01601f19169290920160200192915050565b6020815260006146f16020830184615454565b600080604083850312156154a657600080fd5b6154af8361522d565b946020939093013593505050565b600080604083850312156154d057600080fd5b82356001600160401b038111156154e657600080fd5b6154f2858286016152f5565b9250506155016020840161522d565b90509250929050565b60006020808301818452808551808352604092508286019150828160051b87010184880160005b838110156133e757603f1989840301855281516060815181865261555782870182615454565b838b0151878c015292890151958901959095525094870194925090860190600101615531565b6000806040838503121561559057600080fd5b6155998361522d565b91506155016020840161522d565b6000602082840312156155b957600080fd5b81356001600160401b038111156155cf57600080fd5b6155db848285016152f5565b949350505050565b6000806000606084860312156155f857600080fd5b6156018461522d565b925061560f6020850161522d565b9150604084013590509250925092565b6000806040838503121561563257600080fd5b82356001600160401b038082111561564957600080fd5b818501915085601f83011261565d57600080fd5b8135602061566d6153148361534b565b82815260059290921b8401810191818101908984111561568c57600080fd5b8286015b848110156156c4578035868111156156a85760008081fd5b6156b68c86838b01016152f5565b845250918301918301615690565b50965050860135925050808211156156db57600080fd5b506156e8858286016152f5565b9150509250929050565b600082601f83011261570357600080fd5b813560206157136153148361534b565b82815260059290921b8401810191818101908684111561573257600080fd5b8286015b84811015615754576157478161522d565b8352918301918301615736565b509695505050505050565b60006020828403121561577157600080fd5b81356001600160401b0381111561578757600080fd5b6155db848285016156f2565b6000602082840312156157a557600080fd5b5035919050565b8015158114614da957600080fd5b600080604083850312156157cd57600080fd5b82356001600160401b038111156157e357600080fd5b6157ef858286016156f2565b9250506020830135615800816157ac565b809150509250929050565b60006020828403121561581d57600080fd5b81356146f1816157ac565b6000806040838503121561583b57600080fd5b82356001600160401b0381111561585157600080fd5b61585d858286016152f5565b95602094909401359450505050565b60008060006060848603121561588157600080fd5b61588a8461522d565b925060208401356001600160401b038111156158a557600080fd5b6158b1868287016152f5565b925050604084013590509250925092565b6000806000606084860312156158d757600080fd5b83356001600160401b038111156158ed57600080fd5b6158f9868287016152f5565b93505061560f6020850161522d565b6001600160a01b0391909116815260200190565b60608152600061592f6060830186615454565b60208301949094525060400152919050565b600080600080600060a0868803121561595957600080fd5b853594506159696020870161522d565b94979496505050506040830135926060810135926080909101359150565b60008060008060008060008060008060006101608c8e0312156159a957600080fd5b8b356001600160401b038111156159bf57600080fd5b6159cb8e828f016152f5565b9e60208e01359e5060408e01359d60608101359d5060808101359c5060a08101359b5060c08101359a5060e0810135995061010081013598506101208101359750610140013595509350505050565b6020808252825182820181905260009190848201906040850190845b81811015615a5257835183529284019291840191600101615a36565b50909695505050505050565b60008060408385031215615a7157600080fd5b823591506155016020840161522d565b600080600060608486031215615a9657600080fd5b615a9f8461522d565b925060208401359150615ab46040850161522d565b90509250925092565b600060208284031215615acf57600080fd5b5051919050565b918252602082015260400190565b600082601f830112615af557600080fd5b8151615b03615314826152ce565b818152846020838601011115615b1857600080fd5b6155db826020830160208701615428565b600060208284031215615b3b57600080fd5b81516001600160401b0380821115615b5257600080fd5b908301906101a08286031215615b6757600080fd5b615b6f615275565b825182811115615b7e57600080fd5b615b8a87828601615ae4565b8252506020838101519082015260408084015190820152606080840151908201526080808401519082015260a0808401519082015260c0808401519082015260e0808401519082015261010080840151908201526101208084015190820152610140808401519082015261016080840151908201526101809283015192810192909252509392505050565b60008251615c27818460208701615428565b9190910192915050565b634e487b7160e01b600052603260045260246000fd5b600181811c90821680615c5b57607f821691505b6020821081141561301157634e487b7160e01b600052602260045260246000fd5b634e487b7160e01b600052601160045260246000fd5b60008219821115615ca557615ca5615c7c565b500190565b6000600019821415615cbe57615cbe615c7c565b5060010190565b6000816000190483118215151615615cdf57615cdf615c7c565b500290565b838152606060208201526000615cfd6060830185615454565b82810360408401526101a08451818352615d1982840182615454565b9150506020850151602083015260408501516040830152606085015160608301526080850151608083015260a085015160a083015260c085015160c083015260e085015160e08301526101008086015181840152506101208086015181840152506101408086015181840152506101608086015181840152506101808086015181840152508092505050949350505050565b8281526040602082015260006155db6040830184615454565b600082821015615dd657615dd6615c7c565b500390565b634e487b7160e01b600052603160045260246000fd5b6020808252601290820152711b9bdd08185d5d1a1bdc9a5e9959081e595d60721b604082015260600190565b6020808252601690820152751b9bd919551e5c1953985b59481b9bdd08195e1a5cdd60521b604082015260600190565b6020808252600990820152680636f756e74203e20360bc1b604082015260600190565b604081526000615e836040830185615454565b90508260208301529392505050565b6001600160a01b03929092168252602082015260400190565b600060208284031215615ebd57600080fd5b81516146f1816157ac565b600082615ee557634e487b7160e01b600052601260045260246000fd5b50049056fea2646970667358221220ec085ce4192a75a5dc2f66faddb65ff6df85a979841efd9758221a2ca667ac4d64736f6c63430008090033",
    "linkReferences": {
        "src/backend/contracts/lib.sol": {
            "IterableNodeTypeMapping": [
                {
                    "length": 20,
                    "start": 2601
                },
                {
                    "length": 20,
                    "start": 2732
                },
                {
                    "length": 20,
                    "start": 3362
                },
                {
                    "length": 20,
                    "start": 4776
                },
                {
                    "length": 20,
                    "start": 4907
                },
                {
                    "length": 20,
                    "start": 5244
                },
                {
                    "length": 20,
                    "start": 5595
                },
                {
                    "length": 20,
                    "start": 6295
                },
                {
                    "length": 20,
                    "start": 6975
                },
                {
                    "length": 20,
                    "start": 7420
                },
                {
                    "length": 20,
                    "start": 7589
                },
                {
                    "length": 20,
                    "start": 7850
                },
                {
                    "length": 20,
                    "start": 7981
                },
                {
                    "length": 20,
                    "start": 8324
                },
                {
                    "length": 20,
                    "start": 8615
                },
                {
                    "length": 20,
                    "start": 8746
                },
                {
                    "length": 20,
                    "start": 10443
                },
                {
                    "length": 20,
                    "start": 11598
                },
                {
                    "length": 20,
                    "start": 11729
                },
                {
                    "length": 20,
                    "start": 12046
                },
                {
                    "length": 20,
                    "start": 12177
                },
                {
                    "length": 20,
                    "start": 12499
                },
                {
                    "length": 20,
                    "start": 12871
                },
                {
                    "length": 20,
                    "start": 13418
                },
                {
                    "length": 20,
                    "start": 13754
                },
                {
                    "length": 20,
                    "start": 13885
                },
                {
                    "length": 20,
                    "start": 14678
                },
                {
                    "length": 20,
                    "start": 15478
                },
                {
                    "length": 20,
                    "start": 15623
                },
                {
                    "length": 20,
                    "start": 17087
                },
                {
                    "length": 20,
                    "start": 17477
                },
                {
                    "length": 20,
                    "start": 17632
                },
                {
                    "length": 20,
                    "start": 19257
                },
                {
                    "length": 20,
                    "start": 19939
                }
            ]
        }
    },
    "deployedLinkReferences": {
        "src/backend/contracts/lib.sol": {
            "IterableNodeTypeMapping": [
                {
                    "length": 20,
                    "start": 2568
                },
                {
                    "length": 20,
                    "start": 2699
                },
                {
                    "length": 20,
                    "start": 3329
                },
                {
                    "length": 20,
                    "start": 4743
                },
                {
                    "length": 20,
                    "start": 4874
                },
                {
                    "length": 20,
                    "start": 5211
                },
                {
                    "length": 20,
                    "start": 5562
                },
                {
                    "length": 20,
                    "start": 6262
                },
                {
                    "length": 20,
                    "start": 6942
                },
                {
                    "length": 20,
                    "start": 7387
                },
                {
                    "length": 20,
                    "start": 7556
                },
                {
                    "length": 20,
                    "start": 7817
                },
                {
                    "length": 20,
                    "start": 7948
                },
                {
                    "length": 20,
                    "start": 8291
                },
                {
                    "length": 20,
                    "start": 8582
                },
                {
                    "length": 20,
                    "start": 8713
                },
                {
                    "length": 20,
                    "start": 10410
                },
                {
                    "length": 20,
                    "start": 11565
                },
                {
                    "length": 20,
                    "start": 11696
                },
                {
                    "length": 20,
                    "start": 12013
                },
                {
                    "length": 20,
                    "start": 12144
                },
                {
                    "length": 20,
                    "start": 12466
                },
                {
                    "length": 20,
                    "start": 12838
                },
                {
                    "length": 20,
                    "start": 13385
                },
                {
                    "length": 20,
                    "start": 13721
                },
                {
                    "length": 20,
                    "start": 13852
                },
                {
                    "length": 20,
                    "start": 14645
                },
                {
                    "length": 20,
                    "start": 15445
                },
                {
                    "length": 20,
                    "start": 15590
                },
                {
                    "length": 20,
                    "start": 17054
                },
                {
                    "length": 20,
                    "start": 17444
                },
                {
                    "length": 20,
                    "start": 17599
                },
                {
                    "length": 20,
                    "start": 19224
                },
                {
                    "length": 20,
                    "start": 19906
                }
            ]
        }
    }
}